{
	"contracts/web3-voting.sol": {
		"Voting": {
			"abi": [
				{
					"inputs": [],
					"stateMutability": "nonpayable",
					"type": "constructor"
				},
				{
					"anonymous": false,
					"inputs": [
						{
							"indexed": true,
							"internalType": "uint256",
							"name": "candidateId",
							"type": "uint256"
						}
					],
					"name": "votedEvent",
					"type": "event"
				},
				{
					"inputs": [
						{
							"internalType": "uint256",
							"name": "",
							"type": "uint256"
						}
					],
					"name": "candidates",
					"outputs": [
						{
							"internalType": "uint256",
							"name": "id",
							"type": "uint256"
						},
						{
							"internalType": "string",
							"name": "name",
							"type": "string"
						},
						{
							"internalType": "uint256",
							"name": "voteCount",
							"type": "uint256"
						}
					],
					"stateMutability": "view",
					"type": "function"
				},
				{
					"inputs": [],
					"name": "candidatesCount",
					"outputs": [
						{
							"internalType": "uint256",
							"name": "",
							"type": "uint256"
						}
					],
					"stateMutability": "view",
					"type": "function"
				},
				{
					"inputs": [
						{
							"internalType": "uint256",
							"name": "_candidateId",
							"type": "uint256"
						}
					],
					"name": "getVoteCount",
					"outputs": [
						{
							"internalType": "uint256",
							"name": "",
							"type": "uint256"
						}
					],
					"stateMutability": "view",
					"type": "function"
				},
				{
					"inputs": [
						{
							"internalType": "address",
							"name": "_addr",
							"type": "address"
						}
					],
					"name": "hasVoted",
					"outputs": [
						{
							"internalType": "bool",
							"name": "",
							"type": "bool"
						}
					],
					"stateMutability": "view",
					"type": "function"
				},
				{
					"inputs": [
						{
							"internalType": "uint256",
							"name": "_candidateId",
							"type": "uint256"
						}
					],
					"name": "vote",
					"outputs": [],
					"stateMutability": "nonpayable",
					"type": "function"
				}
			],
			"devdoc": {
				"kind": "dev",
				"methods": {},
				"version": 1
			},
			"evm": {
				"assembly": "    /* \"contracts/web3-voting.sol\":60:1435  contract Voting {... */\n  mstore(0x40, 0x80)\n    /* \"contracts/web3-voting.sol\":413:497  constructor() {... */\n  callvalue\n  dup1\n  iszero\n  tag_1\n  jumpi\n  revert(0x00, 0x00)\ntag_1:\n  pop\n    /* \"contracts/web3-voting.sol\":438:459  addCandidate(\"Alice\") */\n  tag_4\n  mload(0x40)\n  dup1\n  0x40\n  add\n  0x40\n  mstore\n  dup1\n  0x05\n  dup2\n  mstore\n  0x20\n  add\n  0x416c696365000000000000000000000000000000000000000000000000000000\n  dup2\n  mstore\n  pop\n    /* \"contracts/web3-voting.sol\":438:450  addCandidate */\n  shl(0x20, tag_5)\n    /* \"contracts/web3-voting.sol\":438:459  addCandidate(\"Alice\") */\n  0x20\n  shr\n  jump\t// in\ntag_4:\n    /* \"contracts/web3-voting.sol\":470:489  addCandidate(\"Bob\") */\n  tag_6\n  mload(0x40)\n  dup1\n  0x40\n  add\n  0x40\n  mstore\n  dup1\n  0x03\n  dup2\n  mstore\n  0x20\n  add\n  0x426f620000000000000000000000000000000000000000000000000000000000\n  dup2\n  mstore\n  pop\n    /* \"contracts/web3-voting.sol\":470:482  addCandidate */\n  shl(0x20, tag_5)\n    /* \"contracts/web3-voting.sol\":470:489  addCandidate(\"Bob\") */\n  0x20\n  shr\n  jump\t// in\ntag_6:\n    /* \"contracts/web3-voting.sol\":60:1435  contract Voting {... */\n  jump(tag_7)\n    /* \"contracts/web3-voting.sol\":505:669  function addCandidate(string memory _name) private {... */\ntag_5:\n    /* \"contracts/web3-voting.sol\":567:582  candidatesCount */\n  0x02\n  0x00\n    /* \"contracts/web3-voting.sol\":567:584  candidatesCount++ */\n  dup2\n  sload\n  dup1\n  swap3\n  swap2\n  swap1\n  tag_9\n  swap1\n  tag_10\n  jump\t// in\ntag_9:\n  swap2\n  swap1\n  pop\n  sstore\n  pop\n    /* \"contracts/web3-voting.sol\":625:661  Candidate(candidatesCount, _name, 0) */\n  mload(0x40)\n  dup1\n  0x60\n  add\n  0x40\n  mstore\n  dup1\n    /* \"contracts/web3-voting.sol\":635:650  candidatesCount */\n  sload(0x02)\n    /* \"contracts/web3-voting.sol\":625:661  Candidate(candidatesCount, _name, 0) */\n  dup2\n  mstore\n  0x20\n  add\n    /* \"contracts/web3-voting.sol\":652:657  _name */\n  dup3\n    /* \"contracts/web3-voting.sol\":625:661  Candidate(candidatesCount, _name, 0) */\n  dup2\n  mstore\n  0x20\n  add\n    /* \"contracts/web3-voting.sol\":659:660  0 */\n  0x00\n    /* \"contracts/web3-voting.sol\":625:661  Candidate(candidatesCount, _name, 0) */\n  dup2\n  mstore\n  pop\n    /* \"contracts/web3-voting.sol\":595:605  candidates */\n  0x01\n    /* \"contracts/web3-voting.sol\":595:622  candidates[candidatesCount] */\n  0x00\n    /* \"contracts/web3-voting.sol\":606:621  candidatesCount */\n  sload(0x02)\n    /* \"contracts/web3-voting.sol\":595:622  candidates[candidatesCount] */\n  dup2\n  mstore\n  0x20\n  add\n  swap1\n  dup2\n  mstore\n  0x20\n  add\n  0x00\n  keccak256\n    /* \"contracts/web3-voting.sol\":595:661  candidates[candidatesCount] = Candidate(candidatesCount, _name, 0) */\n  0x00\n  dup3\n  add\n  mload\n  dup2\n  0x00\n  add\n  sstore\n  0x20\n  dup3\n  add\n  mload\n  dup2\n  0x01\n  add\n  swap1\n  dup2\n  tag_11\n  swap2\n  swap1\n  tag_12\n  jump\t// in\ntag_11:\n  pop\n  0x40\n  dup3\n  add\n  mload\n  dup2\n  0x02\n  add\n  sstore\n  swap1\n  pop\n  pop\n    /* \"contracts/web3-voting.sol\":505:669  function addCandidate(string memory _name) private {... */\n  pop\n  jump\t// out\n    /* \"#utility.yul\":7:187   */\ntag_13:\n    /* \"#utility.yul\":55:132   */\n  0x4e487b7100000000000000000000000000000000000000000000000000000000\n    /* \"#utility.yul\":52:53   */\n  0x00\n    /* \"#utility.yul\":45:133   */\n  mstore\n    /* \"#utility.yul\":152:156   */\n  0x11\n    /* \"#utility.yul\":149:150   */\n  0x04\n    /* \"#utility.yul\":142:157   */\n  mstore\n    /* \"#utility.yul\":176:180   */\n  0x24\n    /* \"#utility.yul\":173:174   */\n  0x00\n    /* \"#utility.yul\":166:181   */\n  revert\n    /* \"#utility.yul\":193:270   */\ntag_14:\n    /* \"#utility.yul\":230:237   */\n  0x00\n    /* \"#utility.yul\":259:264   */\n  dup2\n    /* \"#utility.yul\":248:264   */\n  swap1\n  pop\n    /* \"#utility.yul\":193:270   */\n  swap2\n  swap1\n  pop\n  jump\t// out\n    /* \"#utility.yul\":276:509   */\ntag_10:\n    /* \"#utility.yul\":315:318   */\n  0x00\n    /* \"#utility.yul\":338:362   */\n  tag_38\n    /* \"#utility.yul\":356:361   */\n  dup3\n    /* \"#utility.yul\":338:362   */\n  tag_14\n  jump\t// in\ntag_38:\n    /* \"#utility.yul\":329:362   */\n  swap2\n  pop\n    /* \"#utility.yul\":384:450   */\n  0xffffffffffffffffffffffffffffffffffffffffffffffffffffffffffffffff\n    /* \"#utility.yul\":377:382   */\n  dup3\n    /* \"#utility.yul\":374:451   */\n  sub\n    /* \"#utility.yul\":371:474   */\n  tag_39\n  jumpi\n    /* \"#utility.yul\":454:472   */\n  tag_40\n  tag_13\n  jump\t// in\ntag_40:\n    /* \"#utility.yul\":371:474   */\ntag_39:\n    /* \"#utility.yul\":501:502   */\n  0x01\n    /* \"#utility.yul\":494:499   */\n  dup3\n    /* \"#utility.yul\":490:503   */\n  add\n    /* \"#utility.yul\":483:503   */\n  swap1\n  pop\n    /* \"#utility.yul\":276:509   */\n  swap2\n  swap1\n  pop\n  jump\t// out\n    /* \"#utility.yul\":515:614   */\ntag_15:\n    /* \"#utility.yul\":567:573   */\n  0x00\n    /* \"#utility.yul\":601:606   */\n  dup2\n    /* \"#utility.yul\":595:607   */\n  mload\n    /* \"#utility.yul\":585:607   */\n  swap1\n  pop\n    /* \"#utility.yul\":515:614   */\n  swap2\n  swap1\n  pop\n  jump\t// out\n    /* \"#utility.yul\":620:800   */\ntag_16:\n    /* \"#utility.yul\":668:745   */\n  0x4e487b7100000000000000000000000000000000000000000000000000000000\n    /* \"#utility.yul\":665:666   */\n  0x00\n    /* \"#utility.yul\":658:746   */\n  mstore\n    /* \"#utility.yul\":765:769   */\n  0x41\n    /* \"#utility.yul\":762:763   */\n  0x04\n    /* \"#utility.yul\":755:770   */\n  mstore\n    /* \"#utility.yul\":789:793   */\n  0x24\n    /* \"#utility.yul\":786:787   */\n  0x00\n    /* \"#utility.yul\":779:794   */\n  revert\n    /* \"#utility.yul\":806:986   */\ntag_17:\n    /* \"#utility.yul\":854:931   */\n  0x4e487b7100000000000000000000000000000000000000000000000000000000\n    /* \"#utility.yul\":851:852   */\n  0x00\n    /* \"#utility.yul\":844:932   */\n  mstore\n    /* \"#utility.yul\":951:955   */\n  0x22\n    /* \"#utility.yul\":948:949   */\n  0x04\n    /* \"#utility.yul\":941:956   */\n  mstore\n    /* \"#utility.yul\":975:979   */\n  0x24\n    /* \"#utility.yul\":972:973   */\n  0x00\n    /* \"#utility.yul\":965:980   */\n  revert\n    /* \"#utility.yul\":992:1312   */\ntag_18:\n    /* \"#utility.yul\":1036:1042   */\n  0x00\n    /* \"#utility.yul\":1073:1074   */\n  0x02\n    /* \"#utility.yul\":1067:1071   */\n  dup3\n    /* \"#utility.yul\":1063:1075   */\n  div\n    /* \"#utility.yul\":1053:1075   */\n  swap1\n  pop\n    /* \"#utility.yul\":1120:1121   */\n  0x01\n    /* \"#utility.yul\":1114:1118   */\n  dup3\n    /* \"#utility.yul\":1110:1122   */\n  and\n    /* \"#utility.yul\":1141:1159   */\n  dup1\n    /* \"#utility.yul\":1131:1212   */\n  tag_45\n  jumpi\n    /* \"#utility.yul\":1197:1201   */\n  0x7f\n    /* \"#utility.yul\":1189:1195   */\n  dup3\n    /* \"#utility.yul\":1185:1202   */\n  and\n    /* \"#utility.yul\":1175:1202   */\n  swap2\n  pop\n    /* \"#utility.yul\":1131:1212   */\ntag_45:\n    /* \"#utility.yul\":1259:1261   */\n  0x20\n    /* \"#utility.yul\":1251:1257   */\n  dup3\n    /* \"#utility.yul\":1248:1262   */\n  lt\n    /* \"#utility.yul\":1228:1246   */\n  dup2\n    /* \"#utility.yul\":1225:1263   */\n  sub\n    /* \"#utility.yul\":1222:1306   */\n  tag_46\n  jumpi\n    /* \"#utility.yul\":1278:1296   */\n  tag_47\n  tag_17\n  jump\t// in\ntag_47:\n    /* \"#utility.yul\":1222:1306   */\ntag_46:\n    /* \"#utility.yul\":1043:1312   */\n  pop\n    /* \"#utility.yul\":992:1312   */\n  swap2\n  swap1\n  pop\n  jump\t// out\n    /* \"#utility.yul\":1318:1459   */\ntag_19:\n    /* \"#utility.yul\":1367:1371   */\n  0x00\n    /* \"#utility.yul\":1390:1393   */\n  dup2\n    /* \"#utility.yul\":1382:1393   */\n  swap1\n  pop\n    /* \"#utility.yul\":1413:1416   */\n  dup2\n    /* \"#utility.yul\":1410:1411   */\n  0x00\n    /* \"#utility.yul\":1403:1417   */\n  mstore\n    /* \"#utility.yul\":1447:1451   */\n  0x20\n    /* \"#utility.yul\":1444:1445   */\n  0x00\n    /* \"#utility.yul\":1434:1452   */\n  keccak256\n    /* \"#utility.yul\":1426:1452   */\n  swap1\n  pop\n    /* \"#utility.yul\":1318:1459   */\n  swap2\n  swap1\n  pop\n  jump\t// out\n    /* \"#utility.yul\":1465:1558   */\ntag_20:\n    /* \"#utility.yul\":1502:1508   */\n  0x00\n    /* \"#utility.yul\":1549:1551   */\n  0x20\n    /* \"#utility.yul\":1544:1546   */\n  0x1f\n    /* \"#utility.yul\":1537:1542   */\n  dup4\n    /* \"#utility.yul\":1533:1547   */\n  add\n    /* \"#utility.yul\":1529:1552   */\n  div\n    /* \"#utility.yul\":1519:1552   */\n  swap1\n  pop\n    /* \"#utility.yul\":1465:1558   */\n  swap2\n  swap1\n  pop\n  jump\t// out\n    /* \"#utility.yul\":1564:1671   */\ntag_21:\n    /* \"#utility.yul\":1608:1616   */\n  0x00\n    /* \"#utility.yul\":1658:1663   */\n  dup3\n    /* \"#utility.yul\":1652:1656   */\n  dup3\n    /* \"#utility.yul\":1648:1664   */\n  shl\n    /* \"#utility.yul\":1627:1664   */\n  swap1\n  pop\n    /* \"#utility.yul\":1564:1671   */\n  swap3\n  swap2\n  pop\n  pop\n  jump\t// out\n    /* \"#utility.yul\":1677:2070   */\ntag_22:\n    /* \"#utility.yul\":1746:1752   */\n  0x00\n    /* \"#utility.yul\":1796:1797   */\n  0x08\n    /* \"#utility.yul\":1784:1794   */\n  dup4\n    /* \"#utility.yul\":1780:1798   */\n  mul\n    /* \"#utility.yul\":1819:1916   */\n  tag_52\n    /* \"#utility.yul\":1849:1915   */\n  0xffffffffffffffffffffffffffffffffffffffffffffffffffffffffffffffff\n    /* \"#utility.yul\":1838:1847   */\n  dup3\n    /* \"#utility.yul\":1819:1916   */\n  tag_21\n  jump\t// in\ntag_52:\n    /* \"#utility.yul\":1937:1976   */\n  tag_53\n    /* \"#utility.yul\":1967:1975   */\n  dup7\n    /* \"#utility.yul\":1956:1965   */\n  dup4\n    /* \"#utility.yul\":1937:1976   */\n  tag_21\n  jump\t// in\ntag_53:\n    /* \"#utility.yul\":1925:1976   */\n  swap6\n  pop\n    /* \"#utility.yul\":2009:2013   */\n  dup1\n    /* \"#utility.yul\":2005:2014   */\n  not\n    /* \"#utility.yul\":1998:2003   */\n  dup5\n    /* \"#utility.yul\":1994:2015   */\n  and\n    /* \"#utility.yul\":1985:2015   */\n  swap4\n  pop\n    /* \"#utility.yul\":2058:2062   */\n  dup1\n    /* \"#utility.yul\":2048:2056   */\n  dup7\n    /* \"#utility.yul\":2044:2063   */\n  and\n    /* \"#utility.yul\":2037:2042   */\n  dup5\n    /* \"#utility.yul\":2034:2064   */\n  or\n    /* \"#utility.yul\":2024:2064   */\n  swap3\n  pop\n    /* \"#utility.yul\":1753:2070   */\n  pop\n  pop\n    /* \"#utility.yul\":1677:2070   */\n  swap4\n  swap3\n  pop\n  pop\n  pop\n  jump\t// out\n    /* \"#utility.yul\":2076:2136   */\ntag_23:\n    /* \"#utility.yul\":2104:2107   */\n  0x00\n    /* \"#utility.yul\":2125:2130   */\n  dup2\n    /* \"#utility.yul\":2118:2130   */\n  swap1\n  pop\n    /* \"#utility.yul\":2076:2136   */\n  swap2\n  swap1\n  pop\n  jump\t// out\n    /* \"#utility.yul\":2142:2284   */\ntag_24:\n    /* \"#utility.yul\":2192:2201   */\n  0x00\n    /* \"#utility.yul\":2225:2278   */\n  tag_56\n    /* \"#utility.yul\":2243:2277   */\n  tag_57\n    /* \"#utility.yul\":2252:2276   */\n  tag_58\n    /* \"#utility.yul\":2270:2275   */\n  dup5\n    /* \"#utility.yul\":2252:2276   */\n  tag_14\n  jump\t// in\ntag_58:\n    /* \"#utility.yul\":2243:2277   */\n  tag_23\n  jump\t// in\ntag_57:\n    /* \"#utility.yul\":2225:2278   */\n  tag_14\n  jump\t// in\ntag_56:\n    /* \"#utility.yul\":2212:2278   */\n  swap1\n  pop\n    /* \"#utility.yul\":2142:2284   */\n  swap2\n  swap1\n  pop\n  jump\t// out\n    /* \"#utility.yul\":2290:2365   */\ntag_25:\n    /* \"#utility.yul\":2333:2336   */\n  0x00\n    /* \"#utility.yul\":2354:2359   */\n  dup2\n    /* \"#utility.yul\":2347:2359   */\n  swap1\n  pop\n    /* \"#utility.yul\":2290:2365   */\n  swap2\n  swap1\n  pop\n  jump\t// out\n    /* \"#utility.yul\":2371:2640   */\ntag_26:\n    /* \"#utility.yul\":2481:2520   */\n  tag_61\n    /* \"#utility.yul\":2512:2519   */\n  dup4\n    /* \"#utility.yul\":2481:2520   */\n  tag_24\n  jump\t// in\ntag_61:\n    /* \"#utility.yul\":2542:2633   */\n  tag_62\n    /* \"#utility.yul\":2591:2632   */\n  tag_63\n    /* \"#utility.yul\":2615:2631   */\n  dup3\n    /* \"#utility.yul\":2591:2632   */\n  tag_25\n  jump\t// in\ntag_63:\n    /* \"#utility.yul\":2583:2589   */\n  dup5\n    /* \"#utility.yul\":2576:2580   */\n  dup5\n    /* \"#utility.yul\":2570:2581   */\n  sload\n    /* \"#utility.yul\":2542:2633   */\n  tag_22\n  jump\t// in\ntag_62:\n    /* \"#utility.yul\":2536:2540   */\n  dup3\n    /* \"#utility.yul\":2529:2634   */\n  sstore\n    /* \"#utility.yul\":2447:2640   */\n  pop\n    /* \"#utility.yul\":2371:2640   */\n  pop\n  pop\n  pop\n  jump\t// out\n    /* \"#utility.yul\":2646:2719   */\ntag_27:\n    /* \"#utility.yul\":2691:2694   */\n  0x00\n    /* \"#utility.yul\":2712:2713   */\n  0x00\n    /* \"#utility.yul\":2705:2713   */\n  swap1\n  pop\n    /* \"#utility.yul\":2646:2719   */\n  swap1\n  jump\t// out\n    /* \"#utility.yul\":2725:2914   */\ntag_28:\n    /* \"#utility.yul\":2802:2834   */\n  tag_66\n  tag_27\n  jump\t// in\ntag_66:\n    /* \"#utility.yul\":2843:2908   */\n  tag_67\n    /* \"#utility.yul\":2901:2907   */\n  dup2\n    /* \"#utility.yul\":2893:2899   */\n  dup5\n    /* \"#utility.yul\":2887:2891   */\n  dup5\n    /* \"#utility.yul\":2843:2908   */\n  tag_26\n  jump\t// in\ntag_67:\n    /* \"#utility.yul\":2778:2914   */\n  pop\n    /* \"#utility.yul\":2725:2914   */\n  pop\n  pop\n  jump\t// out\n    /* \"#utility.yul\":2920:3106   */\ntag_29:\n    /* \"#utility.yul\":2980:3100   */\ntag_69:\n    /* \"#utility.yul\":2997:3000   */\n  dup2\n    /* \"#utility.yul\":2990:2995   */\n  dup2\n    /* \"#utility.yul\":2987:3001   */\n  lt\n    /* \"#utility.yul\":2980:3100   */\n  iszero\n  tag_71\n  jumpi\n    /* \"#utility.yul\":3051:3090   */\n  tag_72\n    /* \"#utility.yul\":3088:3089   */\n  0x00\n    /* \"#utility.yul\":3081:3086   */\n  dup3\n    /* \"#utility.yul\":3051:3090   */\n  tag_28\n  jump\t// in\ntag_72:\n    /* \"#utility.yul\":3024:3025   */\n  0x01\n    /* \"#utility.yul\":3017:3022   */\n  dup2\n    /* \"#utility.yul\":3013:3026   */\n  add\n    /* \"#utility.yul\":3004:3026   */\n  swap1\n  pop\n    /* \"#utility.yul\":2980:3100   */\n  jump(tag_69)\ntag_71:\n    /* \"#utility.yul\":2920:3106   */\n  pop\n  pop\n  jump\t// out\n    /* \"#utility.yul\":3112:3655   */\ntag_30:\n    /* \"#utility.yul\":3213:3215   */\n  0x1f\n    /* \"#utility.yul\":3208:3211   */\n  dup3\n    /* \"#utility.yul\":3205:3216   */\n  gt\n    /* \"#utility.yul\":3202:3648   */\n  iszero\n  tag_74\n  jumpi\n    /* \"#utility.yul\":3247:3285   */\n  tag_75\n    /* \"#utility.yul\":3279:3284   */\n  dup2\n    /* \"#utility.yul\":3247:3285   */\n  tag_19\n  jump\t// in\ntag_75:\n    /* \"#utility.yul\":3331:3360   */\n  tag_76\n    /* \"#utility.yul\":3349:3359   */\n  dup5\n    /* \"#utility.yul\":3331:3360   */\n  tag_20\n  jump\t// in\ntag_76:\n    /* \"#utility.yul\":3321:3329   */\n  dup2\n    /* \"#utility.yul\":3317:3361   */\n  add\n    /* \"#utility.yul\":3514:3516   */\n  0x20\n    /* \"#utility.yul\":3502:3512   */\n  dup6\n    /* \"#utility.yul\":3499:3517   */\n  lt\n    /* \"#utility.yul\":3496:3545   */\n  iszero\n  tag_77\n  jumpi\n    /* \"#utility.yul\":3535:3543   */\n  dup2\n    /* \"#utility.yul\":3520:3543   */\n  swap1\n  pop\n    /* \"#utility.yul\":3496:3545   */\ntag_77:\n    /* \"#utility.yul\":3558:3638   */\n  tag_78\n    /* \"#utility.yul\":3614:3636   */\n  tag_79\n    /* \"#utility.yul\":3632:3635   */\n  dup6\n    /* \"#utility.yul\":3614:3636   */\n  tag_20\n  jump\t// in\ntag_79:\n    /* \"#utility.yul\":3604:3612   */\n  dup4\n    /* \"#utility.yul\":3600:3637   */\n  add\n    /* \"#utility.yul\":3587:3598   */\n  dup3\n    /* \"#utility.yul\":3558:3638   */\n  tag_29\n  jump\t// in\ntag_78:\n    /* \"#utility.yul\":3217:3648   */\n  pop\n  pop\n    /* \"#utility.yul\":3202:3648   */\ntag_74:\n    /* \"#utility.yul\":3112:3655   */\n  pop\n  pop\n  pop\n  jump\t// out\n    /* \"#utility.yul\":3661:3778   */\ntag_31:\n    /* \"#utility.yul\":3715:3723   */\n  0x00\n    /* \"#utility.yul\":3765:3770   */\n  dup3\n    /* \"#utility.yul\":3759:3763   */\n  dup3\n    /* \"#utility.yul\":3755:3771   */\n  shr\n    /* \"#utility.yul\":3734:3771   */\n  swap1\n  pop\n    /* \"#utility.yul\":3661:3778   */\n  swap3\n  swap2\n  pop\n  pop\n  jump\t// out\n    /* \"#utility.yul\":3784:3953   */\ntag_32:\n    /* \"#utility.yul\":3828:3834   */\n  0x00\n    /* \"#utility.yul\":3861:3912   */\n  tag_82\n    /* \"#utility.yul\":3909:3910   */\n  0x00\n    /* \"#utility.yul\":3905:3911   */\n  not\n    /* \"#utility.yul\":3897:3902   */\n  dup5\n    /* \"#utility.yul\":3894:3895   */\n  0x08\n    /* \"#utility.yul\":3890:3903   */\n  mul\n    /* \"#utility.yul\":3861:3912   */\n  tag_31\n  jump\t// in\ntag_82:\n    /* \"#utility.yul\":3857:3913   */\n  not\n    /* \"#utility.yul\":3942:3946   */\n  dup1\n    /* \"#utility.yul\":3936:3940   */\n  dup4\n    /* \"#utility.yul\":3932:3947   */\n  and\n    /* \"#utility.yul\":3922:3947   */\n  swap2\n  pop\n    /* \"#utility.yul\":3835:3953   */\n  pop\n    /* \"#utility.yul\":3784:3953   */\n  swap3\n  swap2\n  pop\n  pop\n  jump\t// out\n    /* \"#utility.yul\":3958:4253   */\ntag_33:\n    /* \"#utility.yul\":4034:4038   */\n  0x00\n    /* \"#utility.yul\":4180:4209   */\n  tag_84\n    /* \"#utility.yul\":4205:4208   */\n  dup4\n    /* \"#utility.yul\":4199:4203   */\n  dup4\n    /* \"#utility.yul\":4180:4209   */\n  tag_32\n  jump\t// in\ntag_84:\n    /* \"#utility.yul\":4172:4209   */\n  swap2\n  pop\n    /* \"#utility.yul\":4242:4245   */\n  dup3\n    /* \"#utility.yul\":4239:4240   */\n  0x02\n    /* \"#utility.yul\":4235:4246   */\n  mul\n    /* \"#utility.yul\":4229:4233   */\n  dup3\n    /* \"#utility.yul\":4226:4247   */\n  or\n    /* \"#utility.yul\":4218:4247   */\n  swap1\n  pop\n    /* \"#utility.yul\":3958:4253   */\n  swap3\n  swap2\n  pop\n  pop\n  jump\t// out\n    /* \"#utility.yul\":4258:5653   */\ntag_12:\n    /* \"#utility.yul\":4375:4412   */\n  tag_86\n    /* \"#utility.yul\":4408:4411   */\n  dup3\n    /* \"#utility.yul\":4375:4412   */\n  tag_15\n  jump\t// in\ntag_86:\n    /* \"#utility.yul\":4477:4495   */\n  0xffffffffffffffff\n    /* \"#utility.yul\":4469:4475   */\n  dup2\n    /* \"#utility.yul\":4466:4496   */\n  gt\n    /* \"#utility.yul\":4463:4519   */\n  iszero\n  tag_87\n  jumpi\n    /* \"#utility.yul\":4499:4517   */\n  tag_88\n  tag_16\n  jump\t// in\ntag_88:\n    /* \"#utility.yul\":4463:4519   */\ntag_87:\n    /* \"#utility.yul\":4543:4581   */\n  tag_89\n    /* \"#utility.yul\":4575:4579   */\n  dup3\n    /* \"#utility.yul\":4569:4580   */\n  sload\n    /* \"#utility.yul\":4543:4581   */\n  tag_18\n  jump\t// in\ntag_89:\n    /* \"#utility.yul\":4628:4695   */\n  tag_90\n    /* \"#utility.yul\":4688:4694   */\n  dup3\n    /* \"#utility.yul\":4680:4686   */\n  dup3\n    /* \"#utility.yul\":4674:4678   */\n  dup6\n    /* \"#utility.yul\":4628:4695   */\n  tag_30\n  jump\t// in\ntag_90:\n    /* \"#utility.yul\":4722:4723   */\n  0x00\n    /* \"#utility.yul\":4746:4750   */\n  0x20\n    /* \"#utility.yul\":4733:4750   */\n  swap1\n  pop\n    /* \"#utility.yul\":4778:4780   */\n  0x1f\n    /* \"#utility.yul\":4770:4776   */\n  dup4\n    /* \"#utility.yul\":4767:4781   */\n  gt\n    /* \"#utility.yul\":4795:4796   */\n  0x01\n    /* \"#utility.yul\":4790:5408   */\n  dup2\n  eq\n  tag_92\n  jumpi\n    /* \"#utility.yul\":5452:5453   */\n  0x00\n    /* \"#utility.yul\":5469:5475   */\n  dup5\n    /* \"#utility.yul\":5466:5543   */\n  iszero\n  tag_93\n  jumpi\n    /* \"#utility.yul\":5518:5527   */\n  dup3\n    /* \"#utility.yul\":5513:5516   */\n  dup8\n    /* \"#utility.yul\":5509:5528   */\n  add\n    /* \"#utility.yul\":5503:5529   */\n  mload\n    /* \"#utility.yul\":5494:5529   */\n  swap1\n  pop\n    /* \"#utility.yul\":5466:5543   */\ntag_93:\n    /* \"#utility.yul\":5569:5636   */\n  tag_94\n    /* \"#utility.yul\":5629:5635   */\n  dup6\n    /* \"#utility.yul\":5622:5627   */\n  dup3\n    /* \"#utility.yul\":5569:5636   */\n  tag_33\n  jump\t// in\ntag_94:\n    /* \"#utility.yul\":5563:5567   */\n  dup7\n    /* \"#utility.yul\":5556:5637   */\n  sstore\n    /* \"#utility.yul\":5425:5647   */\n  pop\n    /* \"#utility.yul\":4760:5647   */\n  jump(tag_91)\n    /* \"#utility.yul\":4790:5408   */\ntag_92:\n    /* \"#utility.yul\":4842:4846   */\n  0x1f\n    /* \"#utility.yul\":4838:4847   */\n  not\n    /* \"#utility.yul\":4830:4836   */\n  dup5\n    /* \"#utility.yul\":4826:4848   */\n  and\n    /* \"#utility.yul\":4876:4913   */\n  tag_95\n    /* \"#utility.yul\":4908:4912   */\n  dup7\n    /* \"#utility.yul\":4876:4913   */\n  tag_19\n  jump\t// in\ntag_95:\n    /* \"#utility.yul\":4935:4936   */\n  0x00\n    /* \"#utility.yul\":4949:5157   */\ntag_96:\n    /* \"#utility.yul\":4963:4970   */\n  dup3\n    /* \"#utility.yul\":4960:4961   */\n  dup2\n    /* \"#utility.yul\":4957:4971   */\n  lt\n    /* \"#utility.yul\":4949:5157   */\n  iszero\n  tag_98\n  jumpi\n    /* \"#utility.yul\":5042:5051   */\n  dup5\n    /* \"#utility.yul\":5037:5040   */\n  dup10\n    /* \"#utility.yul\":5033:5052   */\n  add\n    /* \"#utility.yul\":5027:5053   */\n  mload\n    /* \"#utility.yul\":5019:5025   */\n  dup3\n    /* \"#utility.yul\":5012:5054   */\n  sstore\n    /* \"#utility.yul\":5093:5094   */\n  0x01\n    /* \"#utility.yul\":5085:5091   */\n  dup3\n    /* \"#utility.yul\":5081:5095   */\n  add\n    /* \"#utility.yul\":5071:5095   */\n  swap2\n  pop\n    /* \"#utility.yul\":5140:5142   */\n  0x20\n    /* \"#utility.yul\":5129:5138   */\n  dup6\n    /* \"#utility.yul\":5125:5143   */\n  add\n    /* \"#utility.yul\":5112:5143   */\n  swap5\n  pop\n    /* \"#utility.yul\":4986:4990   */\n  0x20\n    /* \"#utility.yul\":4983:4984   */\n  dup2\n    /* \"#utility.yul\":4979:4991   */\n  add\n    /* \"#utility.yul\":4974:4991   */\n  swap1\n  pop\n    /* \"#utility.yul\":4949:5157   */\n  jump(tag_96)\ntag_98:\n    /* \"#utility.yul\":5185:5191   */\n  dup7\n    /* \"#utility.yul\":5176:5183   */\n  dup4\n    /* \"#utility.yul\":5173:5192   */\n  lt\n    /* \"#utility.yul\":5170:5349   */\n  iszero\n  tag_99\n  jumpi\n    /* \"#utility.yul\":5243:5252   */\n  dup5\n    /* \"#utility.yul\":5238:5241   */\n  dup10\n    /* \"#utility.yul\":5234:5253   */\n  add\n    /* \"#utility.yul\":5228:5254   */\n  mload\n    /* \"#utility.yul\":5286:5334   */\n  tag_100\n    /* \"#utility.yul\":5328:5332   */\n  0x1f\n    /* \"#utility.yul\":5320:5326   */\n  dup10\n    /* \"#utility.yul\":5316:5333   */\n  and\n    /* \"#utility.yul\":5305:5314   */\n  dup3\n    /* \"#utility.yul\":5286:5334   */\n  tag_32\n  jump\t// in\ntag_100:\n    /* \"#utility.yul\":5278:5284   */\n  dup4\n    /* \"#utility.yul\":5271:5335   */\n  sstore\n    /* \"#utility.yul\":5193:5349   */\n  pop\n    /* \"#utility.yul\":5170:5349   */\ntag_99:\n    /* \"#utility.yul\":5395:5396   */\n  0x01\n    /* \"#utility.yul\":5391:5392   */\n  0x02\n    /* \"#utility.yul\":5383:5389   */\n  dup9\n    /* \"#utility.yul\":5379:5393   */\n  mul\n    /* \"#utility.yul\":5375:5397   */\n  add\n    /* \"#utility.yul\":5369:5373   */\n  dup9\n    /* \"#utility.yul\":5362:5398   */\n  sstore\n    /* \"#utility.yul\":4797:5408   */\n  pop\n  pop\n  pop\n    /* \"#utility.yul\":4760:5647   */\ntag_91:\n  pop\n    /* \"#utility.yul\":4350:5653   */\n  pop\n  pop\n  pop\n    /* \"#utility.yul\":4258:5653   */\n  pop\n  pop\n  jump\t// out\n    /* \"contracts/web3-voting.sol\":60:1435  contract Voting {... */\ntag_7:\n  dataSize(sub_0)\n  dup1\n  dataOffset(sub_0)\n  0x00\n  codecopy\n  0x00\n  return\nstop\n\nsub_0: assembly {\n        /* \"contracts/web3-voting.sol\":60:1435  contract Voting {... */\n      mstore(0x40, 0x80)\n      callvalue\n      dup1\n      iszero\n      tag_1\n      jumpi\n      revert(0x00, 0x00)\n    tag_1:\n      pop\n      jumpi(tag_2, lt(calldatasize, 0x04))\n      shr(0xe0, calldataload(0x00))\n      dup1\n      0x0121b93f\n      eq\n      tag_3\n      jumpi\n      dup1\n      0x09eef43e\n      eq\n      tag_4\n      jumpi\n      dup1\n      0x2d35a8a2\n      eq\n      tag_5\n      jumpi\n      dup1\n      0x3477ee2e\n      eq\n      tag_6\n      jumpi\n      dup1\n      0xb2c2f2e8\n      eq\n      tag_7\n      jumpi\n    tag_2:\n      revert(0x00, 0x00)\n        /* \"contracts/web3-voting.sol\":677:1011  function vote(uint _candidateId) public {... */\n    tag_3:\n      tag_8\n      0x04\n      dup1\n      calldatasize\n      sub\n      dup2\n      add\n      swap1\n      tag_9\n      swap2\n      swap1\n      tag_10\n      jump\t// in\n    tag_9:\n      tag_11\n      jump\t// in\n    tag_8:\n      stop\n        /* \"contracts/web3-voting.sol\":1333:1432  function hasVoted(address _addr) public view returns (bool) {... */\n    tag_4:\n      tag_12\n      0x04\n      dup1\n      calldatasize\n      sub\n      dup2\n      add\n      swap1\n      tag_13\n      swap2\n      swap1\n      tag_14\n      jump\t// in\n    tag_13:\n      tag_15\n      jump\t// in\n    tag_12:\n      mload(0x40)\n      tag_16\n      swap2\n      swap1\n      tag_17\n      jump\t// in\n    tag_16:\n      mload(0x40)\n      dup1\n      swap2\n      sub\n      swap1\n      return\n        /* \"contracts/web3-voting.sol\":326:353  uint public candidatesCount */\n    tag_5:\n      tag_18\n      tag_19\n      jump\t// in\n    tag_18:\n      mload(0x40)\n      tag_20\n      swap2\n      swap1\n      tag_21\n      jump\t// in\n    tag_20:\n      mload(0x40)\n      dup1\n      swap2\n      sub\n      swap1\n      return\n        /* \"contracts/web3-voting.sol\":275:319  mapping(uint => Candidate) public candidates */\n    tag_6:\n      tag_22\n      0x04\n      dup1\n      calldatasize\n      sub\n      dup2\n      add\n      swap1\n      tag_23\n      swap2\n      swap1\n      tag_10\n      jump\t// in\n    tag_23:\n      tag_24\n      jump\t// in\n    tag_22:\n      mload(0x40)\n      tag_25\n      swap4\n      swap3\n      swap2\n      swap1\n      tag_26\n      jump\t// in\n    tag_25:\n      mload(0x40)\n      dup1\n      swap2\n      sub\n      swap1\n      return\n        /* \"contracts/web3-voting.sol\":1019:1243  function getVoteCount(uint _candidateId) public view returns (uint) {... */\n    tag_7:\n      tag_27\n      0x04\n      dup1\n      calldatasize\n      sub\n      dup2\n      add\n      swap1\n      tag_28\n      swap2\n      swap1\n      tag_10\n      jump\t// in\n    tag_28:\n      tag_29\n      jump\t// in\n    tag_27:\n      mload(0x40)\n      tag_30\n      swap2\n      swap1\n      tag_21\n      jump\t// in\n    tag_30:\n      mload(0x40)\n      dup1\n      swap2\n      sub\n      swap1\n      return\n        /* \"contracts/web3-voting.sol\":677:1011  function vote(uint _candidateId) public {... */\n    tag_11:\n        /* \"contracts/web3-voting.sol\":737:743  voters */\n      0x00\n        /* \"contracts/web3-voting.sol\":737:755  voters[msg.sender] */\n      0x00\n        /* \"contracts/web3-voting.sol\":744:754  msg.sender */\n      caller\n        /* \"contracts/web3-voting.sol\":737:755  voters[msg.sender] */\n      0xffffffffffffffffffffffffffffffffffffffff\n      and\n      0xffffffffffffffffffffffffffffffffffffffff\n      and\n      dup2\n      mstore\n      0x20\n      add\n      swap1\n      dup2\n      mstore\n      0x20\n      add\n      0x00\n      keccak256\n      0x00\n      swap1\n      sload\n      swap1\n      0x0100\n      exp\n      swap1\n      div\n      0xff\n      and\n        /* \"contracts/web3-voting.sol\":736:755  !voters[msg.sender] */\n      iszero\n        /* \"contracts/web3-voting.sol\":728:783  require(!voters[msg.sender], \"You have already voted.\") */\n      tag_32\n      jumpi\n      mload(0x40)\n      0x08c379a000000000000000000000000000000000000000000000000000000000\n      dup2\n      mstore\n      0x04\n      add\n      tag_33\n      swap1\n      tag_34\n      jump\t// in\n    tag_33:\n      mload(0x40)\n      dup1\n      swap2\n      sub\n      swap1\n      revert\n    tag_32:\n        /* \"contracts/web3-voting.sol\":818:819  0 */\n      0x00\n        /* \"contracts/web3-voting.sol\":803:815  _candidateId */\n      dup2\n        /* \"contracts/web3-voting.sol\":803:819  _candidateId > 0 */\n      gt\n        /* \"contracts/web3-voting.sol\":803:854  _candidateId > 0 && _candidateId <= candidatesCount */\n      dup1\n      iszero\n      tag_35\n      jumpi\n      pop\n        /* \"contracts/web3-voting.sol\":839:854  candidatesCount */\n      sload(0x02)\n        /* \"contracts/web3-voting.sol\":823:835  _candidateId */\n      dup2\n        /* \"contracts/web3-voting.sol\":823:854  _candidateId <= candidatesCount */\n      gt\n      iszero\n        /* \"contracts/web3-voting.sol\":803:854  _candidateId > 0 && _candidateId <= candidatesCount */\n    tag_35:\n        /* \"contracts/web3-voting.sol\":795:880  require(_candidateId > 0 && _candidateId <= candidatesCount, \"Invalid candidate ID.\") */\n      tag_36\n      jumpi\n      mload(0x40)\n      0x08c379a000000000000000000000000000000000000000000000000000000000\n      dup2\n      mstore\n      0x04\n      add\n      tag_37\n      swap1\n      tag_38\n      jump\t// in\n    tag_37:\n      mload(0x40)\n      dup1\n      swap2\n      sub\n      swap1\n      revert\n    tag_36:\n        /* \"contracts/web3-voting.sol\":912:916  true */\n      0x01\n        /* \"contracts/web3-voting.sol\":891:897  voters */\n      0x00\n        /* \"contracts/web3-voting.sol\":891:909  voters[msg.sender] */\n      0x00\n        /* \"contracts/web3-voting.sol\":898:908  msg.sender */\n      caller\n        /* \"contracts/web3-voting.sol\":891:909  voters[msg.sender] */\n      0xffffffffffffffffffffffffffffffffffffffff\n      and\n      0xffffffffffffffffffffffffffffffffffffffff\n      and\n      dup2\n      mstore\n      0x20\n      add\n      swap1\n      dup2\n      mstore\n      0x20\n      add\n      0x00\n      keccak256\n      0x00\n        /* \"contracts/web3-voting.sol\":891:916  voters[msg.sender] = true */\n      0x0100\n      exp\n      dup2\n      sload\n      dup2\n      0xff\n      mul\n      not\n      and\n      swap1\n      dup4\n      iszero\n      iszero\n      mul\n      or\n      swap1\n      sstore\n      pop\n        /* \"contracts/web3-voting.sol\":927:937  candidates */\n      0x01\n        /* \"contracts/web3-voting.sol\":927:951  candidates[_candidateId] */\n      0x00\n        /* \"contracts/web3-voting.sol\":938:950  _candidateId */\n      dup3\n        /* \"contracts/web3-voting.sol\":927:951  candidates[_candidateId] */\n      dup2\n      mstore\n      0x20\n      add\n      swap1\n      dup2\n      mstore\n      0x20\n      add\n      0x00\n      keccak256\n        /* \"contracts/web3-voting.sol\":927:961  candidates[_candidateId].voteCount */\n      0x02\n      add\n      0x00\n        /* \"contracts/web3-voting.sol\":927:963  candidates[_candidateId].voteCount++ */\n      dup2\n      sload\n      dup1\n      swap3\n      swap2\n      swap1\n      tag_39\n      swap1\n      tag_40\n      jump\t// in\n    tag_39:\n      swap2\n      swap1\n      pop\n      sstore\n      pop\n        /* \"contracts/web3-voting.sol\":990:1002  _candidateId */\n      dup1\n        /* \"contracts/web3-voting.sol\":979:1003  votedEvent(_candidateId) */\n      0xfff3c900d938d21d0990d786e819f29b8d05c1ef587b462b939609625b684b16\n      mload(0x40)\n      mload(0x40)\n      dup1\n      swap2\n      sub\n      swap1\n      log2\n        /* \"contracts/web3-voting.sol\":677:1011  function vote(uint _candidateId) public {... */\n      pop\n      jump\t// out\n        /* \"contracts/web3-voting.sol\":1333:1432  function hasVoted(address _addr) public view returns (bool) {... */\n    tag_15:\n        /* \"contracts/web3-voting.sol\":1387:1391  bool */\n      0x00\n        /* \"contracts/web3-voting.sol\":1411:1417  voters */\n      0x00\n        /* \"contracts/web3-voting.sol\":1411:1424  voters[_addr] */\n      0x00\n        /* \"contracts/web3-voting.sol\":1418:1423  _addr */\n      dup4\n        /* \"contracts/web3-voting.sol\":1411:1424  voters[_addr] */\n      0xffffffffffffffffffffffffffffffffffffffff\n      and\n      0xffffffffffffffffffffffffffffffffffffffff\n      and\n      dup2\n      mstore\n      0x20\n      add\n      swap1\n      dup2\n      mstore\n      0x20\n      add\n      0x00\n      keccak256\n      0x00\n      swap1\n      sload\n      swap1\n      0x0100\n      exp\n      swap1\n      div\n      0xff\n      and\n        /* \"contracts/web3-voting.sol\":1404:1424  return voters[_addr] */\n      swap1\n      pop\n        /* \"contracts/web3-voting.sol\":1333:1432  function hasVoted(address _addr) public view returns (bool) {... */\n      swap2\n      swap1\n      pop\n      jump\t// out\n        /* \"contracts/web3-voting.sol\":326:353  uint public candidatesCount */\n    tag_19:\n      sload(0x02)\n      dup2\n      jump\t// out\n        /* \"contracts/web3-voting.sol\":275:319  mapping(uint => Candidate) public candidates */\n    tag_24:\n      mstore(0x20, 0x01)\n      dup1\n      0x00\n      mstore\n      keccak256(0x00, 0x40)\n      0x00\n      swap2\n      pop\n      swap1\n      pop\n      dup1\n      0x00\n      add\n      sload\n      swap1\n      dup1\n      0x01\n      add\n      dup1\n      sload\n      tag_42\n      swap1\n      tag_43\n      jump\t// in\n    tag_42:\n      dup1\n      0x1f\n      add\n      0x20\n      dup1\n      swap2\n      div\n      mul\n      0x20\n      add\n      mload(0x40)\n      swap1\n      dup2\n      add\n      0x40\n      mstore\n      dup1\n      swap3\n      swap2\n      swap1\n      dup2\n      dup2\n      mstore\n      0x20\n      add\n      dup3\n      dup1\n      sload\n      tag_44\n      swap1\n      tag_43\n      jump\t// in\n    tag_44:\n      dup1\n      iszero\n      tag_45\n      jumpi\n      dup1\n      0x1f\n      lt\n      tag_46\n      jumpi\n      0x0100\n      dup1\n      dup4\n      sload\n      div\n      mul\n      dup4\n      mstore\n      swap2\n      0x20\n      add\n      swap2\n      jump(tag_45)\n    tag_46:\n      dup3\n      add\n      swap2\n      swap1\n      0x00\n      mstore\n      keccak256(0x00, 0x20)\n      swap1\n    tag_47:\n      dup2\n      sload\n      dup2\n      mstore\n      swap1\n      0x01\n      add\n      swap1\n      0x20\n      add\n      dup1\n      dup4\n      gt\n      tag_47\n      jumpi\n      dup3\n      swap1\n      sub\n      0x1f\n      and\n      dup3\n      add\n      swap2\n    tag_45:\n      pop\n      pop\n      pop\n      pop\n      pop\n      swap1\n      dup1\n      0x02\n      add\n      sload\n      swap1\n      pop\n      dup4\n      jump\t// out\n        /* \"contracts/web3-voting.sol\":1019:1243  function getVoteCount(uint _candidateId) public view returns (uint) {... */\n    tag_29:\n        /* \"contracts/web3-voting.sol\":1081:1085  uint */\n      0x00\n        /* \"contracts/web3-voting.sol\":1121:1122  0 */\n      0x00\n        /* \"contracts/web3-voting.sol\":1106:1118  _candidateId */\n      dup3\n        /* \"contracts/web3-voting.sol\":1106:1122  _candidateId > 0 */\n      gt\n        /* \"contracts/web3-voting.sol\":1106:1157  _candidateId > 0 && _candidateId <= candidatesCount */\n      dup1\n      iszero\n      tag_49\n      jumpi\n      pop\n        /* \"contracts/web3-voting.sol\":1142:1157  candidatesCount */\n      sload(0x02)\n        /* \"contracts/web3-voting.sol\":1126:1138  _candidateId */\n      dup3\n        /* \"contracts/web3-voting.sol\":1126:1157  _candidateId <= candidatesCount */\n      gt\n      iszero\n        /* \"contracts/web3-voting.sol\":1106:1157  _candidateId > 0 && _candidateId <= candidatesCount */\n    tag_49:\n        /* \"contracts/web3-voting.sol\":1098:1183  require(_candidateId > 0 && _candidateId <= candidatesCount, \"Invalid candidate ID.\") */\n      tag_50\n      jumpi\n      mload(0x40)\n      0x08c379a000000000000000000000000000000000000000000000000000000000\n      dup2\n      mstore\n      0x04\n      add\n      tag_51\n      swap1\n      tag_38\n      jump\t// in\n    tag_51:\n      mload(0x40)\n      dup1\n      swap2\n      sub\n      swap1\n      revert\n    tag_50:\n        /* \"contracts/web3-voting.sol\":1201:1211  candidates */\n      0x01\n        /* \"contracts/web3-voting.sol\":1201:1225  candidates[_candidateId] */\n      0x00\n        /* \"contracts/web3-voting.sol\":1212:1224  _candidateId */\n      dup4\n        /* \"contracts/web3-voting.sol\":1201:1225  candidates[_candidateId] */\n      dup2\n      mstore\n      0x20\n      add\n      swap1\n      dup2\n      mstore\n      0x20\n      add\n      0x00\n      keccak256\n        /* \"contracts/web3-voting.sol\":1201:1235  candidates[_candidateId].voteCount */\n      0x02\n      add\n      sload\n        /* \"contracts/web3-voting.sol\":1194:1235  return candidates[_candidateId].voteCount */\n      swap1\n      pop\n        /* \"contracts/web3-voting.sol\":1019:1243  function getVoteCount(uint _candidateId) public view returns (uint) {... */\n      swap2\n      swap1\n      pop\n      jump\t// out\n        /* \"#utility.yul\":88:205   */\n    tag_53:\n        /* \"#utility.yul\":197:198   */\n      0x00\n        /* \"#utility.yul\":194:195   */\n      0x00\n        /* \"#utility.yul\":187:199   */\n      revert\n        /* \"#utility.yul\":334:411   */\n    tag_55:\n        /* \"#utility.yul\":371:378   */\n      0x00\n        /* \"#utility.yul\":400:405   */\n      dup2\n        /* \"#utility.yul\":389:405   */\n      swap1\n      pop\n        /* \"#utility.yul\":334:411   */\n      swap2\n      swap1\n      pop\n      jump\t// out\n        /* \"#utility.yul\":417:539   */\n    tag_56:\n        /* \"#utility.yul\":490:514   */\n      tag_82\n        /* \"#utility.yul\":508:513   */\n      dup2\n        /* \"#utility.yul\":490:514   */\n      tag_55\n      jump\t// in\n    tag_82:\n        /* \"#utility.yul\":483:488   */\n      dup2\n        /* \"#utility.yul\":480:515   */\n      eq\n        /* \"#utility.yul\":470:533   */\n      tag_83\n      jumpi\n        /* \"#utility.yul\":529:530   */\n      0x00\n        /* \"#utility.yul\":526:527   */\n      0x00\n        /* \"#utility.yul\":519:531   */\n      revert\n        /* \"#utility.yul\":470:533   */\n    tag_83:\n        /* \"#utility.yul\":417:539   */\n      pop\n      jump\t// out\n        /* \"#utility.yul\":545:684   */\n    tag_57:\n        /* \"#utility.yul\":591:596   */\n      0x00\n        /* \"#utility.yul\":629:635   */\n      dup2\n        /* \"#utility.yul\":616:636   */\n      calldataload\n        /* \"#utility.yul\":607:636   */\n      swap1\n      pop\n        /* \"#utility.yul\":645:678   */\n      tag_85\n        /* \"#utility.yul\":672:677   */\n      dup2\n        /* \"#utility.yul\":645:678   */\n      tag_56\n      jump\t// in\n    tag_85:\n        /* \"#utility.yul\":545:684   */\n      swap3\n      swap2\n      pop\n      pop\n      jump\t// out\n        /* \"#utility.yul\":690:1019   */\n    tag_10:\n        /* \"#utility.yul\":749:755   */\n      0x00\n        /* \"#utility.yul\":798:800   */\n      0x20\n        /* \"#utility.yul\":786:795   */\n      dup3\n        /* \"#utility.yul\":777:784   */\n      dup5\n        /* \"#utility.yul\":773:796   */\n      sub\n        /* \"#utility.yul\":769:801   */\n      slt\n        /* \"#utility.yul\":766:885   */\n      iszero\n      tag_87\n      jumpi\n        /* \"#utility.yul\":804:883   */\n      tag_88\n      tag_53\n      jump\t// in\n    tag_88:\n        /* \"#utility.yul\":766:885   */\n    tag_87:\n        /* \"#utility.yul\":924:925   */\n      0x00\n        /* \"#utility.yul\":949:1002   */\n      tag_89\n        /* \"#utility.yul\":994:1001   */\n      dup5\n        /* \"#utility.yul\":985:991   */\n      dup3\n        /* \"#utility.yul\":974:983   */\n      dup6\n        /* \"#utility.yul\":970:992   */\n      add\n        /* \"#utility.yul\":949:1002   */\n      tag_57\n      jump\t// in\n    tag_89:\n        /* \"#utility.yul\":939:1002   */\n      swap2\n      pop\n        /* \"#utility.yul\":895:1012   */\n      pop\n        /* \"#utility.yul\":690:1019   */\n      swap3\n      swap2\n      pop\n      pop\n      jump\t// out\n        /* \"#utility.yul\":1025:1151   */\n    tag_58:\n        /* \"#utility.yul\":1062:1069   */\n      0x00\n        /* \"#utility.yul\":1102:1144   */\n      0xffffffffffffffffffffffffffffffffffffffff\n        /* \"#utility.yul\":1095:1100   */\n      dup3\n        /* \"#utility.yul\":1091:1145   */\n      and\n        /* \"#utility.yul\":1080:1145   */\n      swap1\n      pop\n        /* \"#utility.yul\":1025:1151   */\n      swap2\n      swap1\n      pop\n      jump\t// out\n        /* \"#utility.yul\":1157:1253   */\n    tag_59:\n        /* \"#utility.yul\":1194:1201   */\n      0x00\n        /* \"#utility.yul\":1223:1247   */\n      tag_92\n        /* \"#utility.yul\":1241:1246   */\n      dup3\n        /* \"#utility.yul\":1223:1247   */\n      tag_58\n      jump\t// in\n    tag_92:\n        /* \"#utility.yul\":1212:1247   */\n      swap1\n      pop\n        /* \"#utility.yul\":1157:1253   */\n      swap2\n      swap1\n      pop\n      jump\t// out\n        /* \"#utility.yul\":1259:1381   */\n    tag_60:\n        /* \"#utility.yul\":1332:1356   */\n      tag_94\n        /* \"#utility.yul\":1350:1355   */\n      dup2\n        /* \"#utility.yul\":1332:1356   */\n      tag_59\n      jump\t// in\n    tag_94:\n        /* \"#utility.yul\":1325:1330   */\n      dup2\n        /* \"#utility.yul\":1322:1357   */\n      eq\n        /* \"#utility.yul\":1312:1375   */\n      tag_95\n      jumpi\n        /* \"#utility.yul\":1371:1372   */\n      0x00\n        /* \"#utility.yul\":1368:1369   */\n      0x00\n        /* \"#utility.yul\":1361:1373   */\n      revert\n        /* \"#utility.yul\":1312:1375   */\n    tag_95:\n        /* \"#utility.yul\":1259:1381   */\n      pop\n      jump\t// out\n        /* \"#utility.yul\":1387:1526   */\n    tag_61:\n        /* \"#utility.yul\":1433:1438   */\n      0x00\n        /* \"#utility.yul\":1471:1477   */\n      dup2\n        /* \"#utility.yul\":1458:1478   */\n      calldataload\n        /* \"#utility.yul\":1449:1478   */\n      swap1\n      pop\n        /* \"#utility.yul\":1487:1520   */\n      tag_97\n        /* \"#utility.yul\":1514:1519   */\n      dup2\n        /* \"#utility.yul\":1487:1520   */\n      tag_60\n      jump\t// in\n    tag_97:\n        /* \"#utility.yul\":1387:1526   */\n      swap3\n      swap2\n      pop\n      pop\n      jump\t// out\n        /* \"#utility.yul\":1532:1861   */\n    tag_14:\n        /* \"#utility.yul\":1591:1597   */\n      0x00\n        /* \"#utility.yul\":1640:1642   */\n      0x20\n        /* \"#utility.yul\":1628:1637   */\n      dup3\n        /* \"#utility.yul\":1619:1626   */\n      dup5\n        /* \"#utility.yul\":1615:1638   */\n      sub\n        /* \"#utility.yul\":1611:1643   */\n      slt\n        /* \"#utility.yul\":1608:1727   */\n      iszero\n      tag_99\n      jumpi\n        /* \"#utility.yul\":1646:1725   */\n      tag_100\n      tag_53\n      jump\t// in\n    tag_100:\n        /* \"#utility.yul\":1608:1727   */\n    tag_99:\n        /* \"#utility.yul\":1766:1767   */\n      0x00\n        /* \"#utility.yul\":1791:1844   */\n      tag_101\n        /* \"#utility.yul\":1836:1843   */\n      dup5\n        /* \"#utility.yul\":1827:1833   */\n      dup3\n        /* \"#utility.yul\":1816:1825   */\n      dup6\n        /* \"#utility.yul\":1812:1834   */\n      add\n        /* \"#utility.yul\":1791:1844   */\n      tag_61\n      jump\t// in\n    tag_101:\n        /* \"#utility.yul\":1781:1844   */\n      swap2\n      pop\n        /* \"#utility.yul\":1737:1854   */\n      pop\n        /* \"#utility.yul\":1532:1861   */\n      swap3\n      swap2\n      pop\n      pop\n      jump\t// out\n        /* \"#utility.yul\":1867:1957   */\n    tag_62:\n        /* \"#utility.yul\":1901:1908   */\n      0x00\n        /* \"#utility.yul\":1944:1949   */\n      dup2\n        /* \"#utility.yul\":1937:1950   */\n      iszero\n        /* \"#utility.yul\":1930:1951   */\n      iszero\n        /* \"#utility.yul\":1919:1951   */\n      swap1\n      pop\n        /* \"#utility.yul\":1867:1957   */\n      swap2\n      swap1\n      pop\n      jump\t// out\n        /* \"#utility.yul\":1963:2072   */\n    tag_63:\n        /* \"#utility.yul\":2044:2065   */\n      tag_104\n        /* \"#utility.yul\":2059:2064   */\n      dup2\n        /* \"#utility.yul\":2044:2065   */\n      tag_62\n      jump\t// in\n    tag_104:\n        /* \"#utility.yul\":2039:2042   */\n      dup3\n        /* \"#utility.yul\":2032:2066   */\n      mstore\n        /* \"#utility.yul\":1963:2072   */\n      pop\n      pop\n      jump\t// out\n        /* \"#utility.yul\":2078:2288   */\n    tag_17:\n        /* \"#utility.yul\":2165:2169   */\n      0x00\n        /* \"#utility.yul\":2203:2205   */\n      0x20\n        /* \"#utility.yul\":2192:2201   */\n      dup3\n        /* \"#utility.yul\":2188:2206   */\n      add\n        /* \"#utility.yul\":2180:2206   */\n      swap1\n      pop\n        /* \"#utility.yul\":2216:2281   */\n      tag_106\n        /* \"#utility.yul\":2278:2279   */\n      0x00\n        /* \"#utility.yul\":2267:2276   */\n      dup4\n        /* \"#utility.yul\":2263:2280   */\n      add\n        /* \"#utility.yul\":2254:2260   */\n      dup5\n        /* \"#utility.yul\":2216:2281   */\n      tag_63\n      jump\t// in\n    tag_106:\n        /* \"#utility.yul\":2078:2288   */\n      swap3\n      swap2\n      pop\n      pop\n      jump\t// out\n        /* \"#utility.yul\":2294:2412   */\n    tag_64:\n        /* \"#utility.yul\":2381:2405   */\n      tag_108\n        /* \"#utility.yul\":2399:2404   */\n      dup2\n        /* \"#utility.yul\":2381:2405   */\n      tag_55\n      jump\t// in\n    tag_108:\n        /* \"#utility.yul\":2376:2379   */\n      dup3\n        /* \"#utility.yul\":2369:2406   */\n      mstore\n        /* \"#utility.yul\":2294:2412   */\n      pop\n      pop\n      jump\t// out\n        /* \"#utility.yul\":2418:2640   */\n    tag_21:\n        /* \"#utility.yul\":2511:2515   */\n      0x00\n        /* \"#utility.yul\":2549:2551   */\n      0x20\n        /* \"#utility.yul\":2538:2547   */\n      dup3\n        /* \"#utility.yul\":2534:2552   */\n      add\n        /* \"#utility.yul\":2526:2552   */\n      swap1\n      pop\n        /* \"#utility.yul\":2562:2633   */\n      tag_110\n        /* \"#utility.yul\":2630:2631   */\n      0x00\n        /* \"#utility.yul\":2619:2628   */\n      dup4\n        /* \"#utility.yul\":2615:2632   */\n      add\n        /* \"#utility.yul\":2606:2612   */\n      dup5\n        /* \"#utility.yul\":2562:2633   */\n      tag_64\n      jump\t// in\n    tag_110:\n        /* \"#utility.yul\":2418:2640   */\n      swap3\n      swap2\n      pop\n      pop\n      jump\t// out\n        /* \"#utility.yul\":2646:2745   */\n    tag_65:\n        /* \"#utility.yul\":2698:2704   */\n      0x00\n        /* \"#utility.yul\":2732:2737   */\n      dup2\n        /* \"#utility.yul\":2726:2738   */\n      mload\n        /* \"#utility.yul\":2716:2738   */\n      swap1\n      pop\n        /* \"#utility.yul\":2646:2745   */\n      swap2\n      swap1\n      pop\n      jump\t// out\n        /* \"#utility.yul\":2751:2920   */\n    tag_66:\n        /* \"#utility.yul\":2835:2846   */\n      0x00\n        /* \"#utility.yul\":2869:2875   */\n      dup3\n        /* \"#utility.yul\":2864:2867   */\n      dup3\n        /* \"#utility.yul\":2857:2876   */\n      mstore\n        /* \"#utility.yul\":2909:2913   */\n      0x20\n        /* \"#utility.yul\":2904:2907   */\n      dup3\n        /* \"#utility.yul\":2900:2914   */\n      add\n        /* \"#utility.yul\":2885:2914   */\n      swap1\n      pop\n        /* \"#utility.yul\":2751:2920   */\n      swap3\n      swap2\n      pop\n      pop\n      jump\t// out\n        /* \"#utility.yul\":2926:3065   */\n    tag_67:\n        /* \"#utility.yul\":3015:3021   */\n      dup3\n        /* \"#utility.yul\":3010:3013   */\n      dup2\n        /* \"#utility.yul\":3005:3008   */\n      dup4\n        /* \"#utility.yul\":2999:3022   */\n      mcopy\n        /* \"#utility.yul\":3056:3057   */\n      0x00\n        /* \"#utility.yul\":3047:3053   */\n      dup4\n        /* \"#utility.yul\":3042:3045   */\n      dup4\n        /* \"#utility.yul\":3038:3054   */\n      add\n        /* \"#utility.yul\":3031:3058   */\n      mstore\n        /* \"#utility.yul\":2926:3065   */\n      pop\n      pop\n      pop\n      jump\t// out\n        /* \"#utility.yul\":3071:3173   */\n    tag_68:\n        /* \"#utility.yul\":3112:3118   */\n      0x00\n        /* \"#utility.yul\":3163:3165   */\n      0x1f\n        /* \"#utility.yul\":3159:3166   */\n      not\n        /* \"#utility.yul\":3154:3156   */\n      0x1f\n        /* \"#utility.yul\":3147:3152   */\n      dup4\n        /* \"#utility.yul\":3143:3157   */\n      add\n        /* \"#utility.yul\":3139:3167   */\n      and\n        /* \"#utility.yul\":3129:3167   */\n      swap1\n      pop\n        /* \"#utility.yul\":3071:3173   */\n      swap2\n      swap1\n      pop\n      jump\t// out\n        /* \"#utility.yul\":3179:3556   */\n    tag_69:\n        /* \"#utility.yul\":3267:3270   */\n      0x00\n        /* \"#utility.yul\":3295:3334   */\n      tag_116\n        /* \"#utility.yul\":3328:3333   */\n      dup3\n        /* \"#utility.yul\":3295:3334   */\n      tag_65\n      jump\t// in\n    tag_116:\n        /* \"#utility.yul\":3350:3421   */\n      tag_117\n        /* \"#utility.yul\":3414:3420   */\n      dup2\n        /* \"#utility.yul\":3409:3412   */\n      dup6\n        /* \"#utility.yul\":3350:3421   */\n      tag_66\n      jump\t// in\n    tag_117:\n        /* \"#utility.yul\":3343:3421   */\n      swap4\n      pop\n        /* \"#utility.yul\":3430:3495   */\n      tag_118\n        /* \"#utility.yul\":3488:3494   */\n      dup2\n        /* \"#utility.yul\":3483:3486   */\n      dup6\n        /* \"#utility.yul\":3476:3480   */\n      0x20\n        /* \"#utility.yul\":3469:3474   */\n      dup7\n        /* \"#utility.yul\":3465:3481   */\n      add\n        /* \"#utility.yul\":3430:3495   */\n      tag_67\n      jump\t// in\n    tag_118:\n        /* \"#utility.yul\":3520:3549   */\n      tag_119\n        /* \"#utility.yul\":3542:3548   */\n      dup2\n        /* \"#utility.yul\":3520:3549   */\n      tag_68\n      jump\t// in\n    tag_119:\n        /* \"#utility.yul\":3515:3518   */\n      dup5\n        /* \"#utility.yul\":3511:3550   */\n      add\n        /* \"#utility.yul\":3504:3550   */\n      swap2\n      pop\n        /* \"#utility.yul\":3271:3556   */\n      pop\n        /* \"#utility.yul\":3179:3556   */\n      swap3\n      swap2\n      pop\n      pop\n      jump\t// out\n        /* \"#utility.yul\":3562:4095   */\n    tag_26:\n        /* \"#utility.yul\":3731:3735   */\n      0x00\n        /* \"#utility.yul\":3769:3771   */\n      0x60\n        /* \"#utility.yul\":3758:3767   */\n      dup3\n        /* \"#utility.yul\":3754:3772   */\n      add\n        /* \"#utility.yul\":3746:3772   */\n      swap1\n      pop\n        /* \"#utility.yul\":3782:3853   */\n      tag_121\n        /* \"#utility.yul\":3850:3851   */\n      0x00\n        /* \"#utility.yul\":3839:3848   */\n      dup4\n        /* \"#utility.yul\":3835:3852   */\n      add\n        /* \"#utility.yul\":3826:3832   */\n      dup7\n        /* \"#utility.yul\":3782:3853   */\n      tag_64\n      jump\t// in\n    tag_121:\n        /* \"#utility.yul\":3900:3909   */\n      dup2\n        /* \"#utility.yul\":3894:3898   */\n      dup2\n        /* \"#utility.yul\":3890:3910   */\n      sub\n        /* \"#utility.yul\":3885:3887   */\n      0x20\n        /* \"#utility.yul\":3874:3883   */\n      dup4\n        /* \"#utility.yul\":3870:3888   */\n      add\n        /* \"#utility.yul\":3863:3911   */\n      mstore\n        /* \"#utility.yul\":3928:4006   */\n      tag_122\n        /* \"#utility.yul\":4001:4005   */\n      dup2\n        /* \"#utility.yul\":3992:3998   */\n      dup6\n        /* \"#utility.yul\":3928:4006   */\n      tag_69\n      jump\t// in\n    tag_122:\n        /* \"#utility.yul\":3920:4006   */\n      swap1\n      pop\n        /* \"#utility.yul\":4016:4088   */\n      tag_123\n        /* \"#utility.yul\":4084:4086   */\n      0x40\n        /* \"#utility.yul\":4073:4082   */\n      dup4\n        /* \"#utility.yul\":4069:4087   */\n      add\n        /* \"#utility.yul\":4060:4066   */\n      dup5\n        /* \"#utility.yul\":4016:4088   */\n      tag_64\n      jump\t// in\n    tag_123:\n        /* \"#utility.yul\":3562:4095   */\n      swap5\n      swap4\n      pop\n      pop\n      pop\n      pop\n      jump\t// out\n        /* \"#utility.yul\":4101:4274   */\n    tag_70:\n        /* \"#utility.yul\":4241:4266   */\n      0x596f75206861766520616c726561647920766f7465642e000000000000000000\n        /* \"#utility.yul\":4237:4238   */\n      0x00\n        /* \"#utility.yul\":4229:4235   */\n      dup3\n        /* \"#utility.yul\":4225:4239   */\n      add\n        /* \"#utility.yul\":4218:4267   */\n      mstore\n        /* \"#utility.yul\":4101:4274   */\n      pop\n      jump\t// out\n        /* \"#utility.yul\":4280:4646   */\n    tag_71:\n        /* \"#utility.yul\":4422:4425   */\n      0x00\n        /* \"#utility.yul\":4443:4510   */\n      tag_126\n        /* \"#utility.yul\":4507:4509   */\n      0x17\n        /* \"#utility.yul\":4502:4505   */\n      dup4\n        /* \"#utility.yul\":4443:4510   */\n      tag_66\n      jump\t// in\n    tag_126:\n        /* \"#utility.yul\":4436:4510   */\n      swap2\n      pop\n        /* \"#utility.yul\":4519:4612   */\n      tag_127\n        /* \"#utility.yul\":4608:4611   */\n      dup3\n        /* \"#utility.yul\":4519:4612   */\n      tag_70\n      jump\t// in\n    tag_127:\n        /* \"#utility.yul\":4637:4639   */\n      0x20\n        /* \"#utility.yul\":4632:4635   */\n      dup3\n        /* \"#utility.yul\":4628:4640   */\n      add\n        /* \"#utility.yul\":4621:4640   */\n      swap1\n      pop\n        /* \"#utility.yul\":4280:4646   */\n      swap2\n      swap1\n      pop\n      jump\t// out\n        /* \"#utility.yul\":4652:5071   */\n    tag_34:\n        /* \"#utility.yul\":4818:4822   */\n      0x00\n        /* \"#utility.yul\":4856:4858   */\n      0x20\n        /* \"#utility.yul\":4845:4854   */\n      dup3\n        /* \"#utility.yul\":4841:4859   */\n      add\n        /* \"#utility.yul\":4833:4859   */\n      swap1\n      pop\n        /* \"#utility.yul\":4905:4914   */\n      dup2\n        /* \"#utility.yul\":4899:4903   */\n      dup2\n        /* \"#utility.yul\":4895:4915   */\n      sub\n        /* \"#utility.yul\":4891:4892   */\n      0x00\n        /* \"#utility.yul\":4880:4889   */\n      dup4\n        /* \"#utility.yul\":4876:4893   */\n      add\n        /* \"#utility.yul\":4869:4916   */\n      mstore\n        /* \"#utility.yul\":4933:5064   */\n      tag_129\n        /* \"#utility.yul\":5059:5063   */\n      dup2\n        /* \"#utility.yul\":4933:5064   */\n      tag_71\n      jump\t// in\n    tag_129:\n        /* \"#utility.yul\":4925:5064   */\n      swap1\n      pop\n        /* \"#utility.yul\":4652:5071   */\n      swap2\n      swap1\n      pop\n      jump\t// out\n        /* \"#utility.yul\":5077:5248   */\n    tag_72:\n        /* \"#utility.yul\":5217:5240   */\n      0x496e76616c69642063616e6469646174652049442e0000000000000000000000\n        /* \"#utility.yul\":5213:5214   */\n      0x00\n        /* \"#utility.yul\":5205:5211   */\n      dup3\n        /* \"#utility.yul\":5201:5215   */\n      add\n        /* \"#utility.yul\":5194:5241   */\n      mstore\n        /* \"#utility.yul\":5077:5248   */\n      pop\n      jump\t// out\n        /* \"#utility.yul\":5254:5620   */\n    tag_73:\n        /* \"#utility.yul\":5396:5399   */\n      0x00\n        /* \"#utility.yul\":5417:5484   */\n      tag_132\n        /* \"#utility.yul\":5481:5483   */\n      0x15\n        /* \"#utility.yul\":5476:5479   */\n      dup4\n        /* \"#utility.yul\":5417:5484   */\n      tag_66\n      jump\t// in\n    tag_132:\n        /* \"#utility.yul\":5410:5484   */\n      swap2\n      pop\n        /* \"#utility.yul\":5493:5586   */\n      tag_133\n        /* \"#utility.yul\":5582:5585   */\n      dup3\n        /* \"#utility.yul\":5493:5586   */\n      tag_72\n      jump\t// in\n    tag_133:\n        /* \"#utility.yul\":5611:5613   */\n      0x20\n        /* \"#utility.yul\":5606:5609   */\n      dup3\n        /* \"#utility.yul\":5602:5614   */\n      add\n        /* \"#utility.yul\":5595:5614   */\n      swap1\n      pop\n        /* \"#utility.yul\":5254:5620   */\n      swap2\n      swap1\n      pop\n      jump\t// out\n        /* \"#utility.yul\":5626:6045   */\n    tag_38:\n        /* \"#utility.yul\":5792:5796   */\n      0x00\n        /* \"#utility.yul\":5830:5832   */\n      0x20\n        /* \"#utility.yul\":5819:5828   */\n      dup3\n        /* \"#utility.yul\":5815:5833   */\n      add\n        /* \"#utility.yul\":5807:5833   */\n      swap1\n      pop\n        /* \"#utility.yul\":5879:5888   */\n      dup2\n        /* \"#utility.yul\":5873:5877   */\n      dup2\n        /* \"#utility.yul\":5869:5889   */\n      sub\n        /* \"#utility.yul\":5865:5866   */\n      0x00\n        /* \"#utility.yul\":5854:5863   */\n      dup4\n        /* \"#utility.yul\":5850:5867   */\n      add\n        /* \"#utility.yul\":5843:5890   */\n      mstore\n        /* \"#utility.yul\":5907:6038   */\n      tag_135\n        /* \"#utility.yul\":6033:6037   */\n      dup2\n        /* \"#utility.yul\":5907:6038   */\n      tag_73\n      jump\t// in\n    tag_135:\n        /* \"#utility.yul\":5899:6038   */\n      swap1\n      pop\n        /* \"#utility.yul\":5626:6045   */\n      swap2\n      swap1\n      pop\n      jump\t// out\n        /* \"#utility.yul\":6051:6231   */\n    tag_74:\n        /* \"#utility.yul\":6099:6176   */\n      0x4e487b7100000000000000000000000000000000000000000000000000000000\n        /* \"#utility.yul\":6096:6097   */\n      0x00\n        /* \"#utility.yul\":6089:6177   */\n      mstore\n        /* \"#utility.yul\":6196:6200   */\n      0x11\n        /* \"#utility.yul\":6193:6194   */\n      0x04\n        /* \"#utility.yul\":6186:6201   */\n      mstore\n        /* \"#utility.yul\":6220:6224   */\n      0x24\n        /* \"#utility.yul\":6217:6218   */\n      0x00\n        /* \"#utility.yul\":6210:6225   */\n      revert\n        /* \"#utility.yul\":6237:6470   */\n    tag_40:\n        /* \"#utility.yul\":6276:6279   */\n      0x00\n        /* \"#utility.yul\":6299:6323   */\n      tag_138\n        /* \"#utility.yul\":6317:6322   */\n      dup3\n        /* \"#utility.yul\":6299:6323   */\n      tag_55\n      jump\t// in\n    tag_138:\n        /* \"#utility.yul\":6290:6323   */\n      swap2\n      pop\n        /* \"#utility.yul\":6345:6411   */\n      0xffffffffffffffffffffffffffffffffffffffffffffffffffffffffffffffff\n        /* \"#utility.yul\":6338:6343   */\n      dup3\n        /* \"#utility.yul\":6335:6412   */\n      sub\n        /* \"#utility.yul\":6332:6435   */\n      tag_139\n      jumpi\n        /* \"#utility.yul\":6415:6433   */\n      tag_140\n      tag_74\n      jump\t// in\n    tag_140:\n        /* \"#utility.yul\":6332:6435   */\n    tag_139:\n        /* \"#utility.yul\":6462:6463   */\n      0x01\n        /* \"#utility.yul\":6455:6460   */\n      dup3\n        /* \"#utility.yul\":6451:6464   */\n      add\n        /* \"#utility.yul\":6444:6464   */\n      swap1\n      pop\n        /* \"#utility.yul\":6237:6470   */\n      swap2\n      swap1\n      pop\n      jump\t// out\n        /* \"#utility.yul\":6476:6656   */\n    tag_75:\n        /* \"#utility.yul\":6524:6601   */\n      0x4e487b7100000000000000000000000000000000000000000000000000000000\n        /* \"#utility.yul\":6521:6522   */\n      0x00\n        /* \"#utility.yul\":6514:6602   */\n      mstore\n        /* \"#utility.yul\":6621:6625   */\n      0x22\n        /* \"#utility.yul\":6618:6619   */\n      0x04\n        /* \"#utility.yul\":6611:6626   */\n      mstore\n        /* \"#utility.yul\":6645:6649   */\n      0x24\n        /* \"#utility.yul\":6642:6643   */\n      0x00\n        /* \"#utility.yul\":6635:6650   */\n      revert\n        /* \"#utility.yul\":6662:6982   */\n    tag_43:\n        /* \"#utility.yul\":6706:6712   */\n      0x00\n        /* \"#utility.yul\":6743:6744   */\n      0x02\n        /* \"#utility.yul\":6737:6741   */\n      dup3\n        /* \"#utility.yul\":6733:6745   */\n      div\n        /* \"#utility.yul\":6723:6745   */\n      swap1\n      pop\n        /* \"#utility.yul\":6790:6791   */\n      0x01\n        /* \"#utility.yul\":6784:6788   */\n      dup3\n        /* \"#utility.yul\":6780:6792   */\n      and\n        /* \"#utility.yul\":6811:6829   */\n      dup1\n        /* \"#utility.yul\":6801:6882   */\n      tag_143\n      jumpi\n        /* \"#utility.yul\":6867:6871   */\n      0x7f\n        /* \"#utility.yul\":6859:6865   */\n      dup3\n        /* \"#utility.yul\":6855:6872   */\n      and\n        /* \"#utility.yul\":6845:6872   */\n      swap2\n      pop\n        /* \"#utility.yul\":6801:6882   */\n    tag_143:\n        /* \"#utility.yul\":6929:6931   */\n      0x20\n        /* \"#utility.yul\":6921:6927   */\n      dup3\n        /* \"#utility.yul\":6918:6932   */\n      lt\n        /* \"#utility.yul\":6898:6916   */\n      dup2\n        /* \"#utility.yul\":6895:6933   */\n      sub\n        /* \"#utility.yul\":6892:6976   */\n      tag_144\n      jumpi\n        /* \"#utility.yul\":6948:6966   */\n      tag_145\n      tag_75\n      jump\t// in\n    tag_145:\n        /* \"#utility.yul\":6892:6976   */\n    tag_144:\n        /* \"#utility.yul\":6713:6982   */\n      pop\n        /* \"#utility.yul\":6662:6982   */\n      swap2\n      swap1\n      pop\n      jump\t// out\n\n    auxdata: 0xa264697066735822122053995e4d54df9ed833ac4b3aecd48c10b071a6d1808d3a3387c216e71fac9e9d64736f6c634300081e0033\n}\n",
				"bytecode": {
					"linkReferences": {},
					"object": "608060405234801561000f575f5ffd5b506100546040518060400160405280600581526020017f416c69636500000000000000000000000000000000000000000000000000000081525061009d60201b60201c565b6100986040518060400160405280600381526020017f426f62000000000000000000000000000000000000000000000000000000000081525061009d60201b60201c565b610492565b60025f8154809291906100af90610148565b9190505550604051806060016040528060025481526020018281526020015f81525060015f60025481526020019081526020015f205f820151815f0155602082015181600101908161010191906103c3565b506040820151816002015590505050565b7f4e487b71000000000000000000000000000000000000000000000000000000005f52601160045260245ffd5b5f819050919050565b5f6101528261013f565b91507fffffffffffffffffffffffffffffffffffffffffffffffffffffffffffffffff820361018457610183610112565b5b600182019050919050565b5f81519050919050565b7f4e487b71000000000000000000000000000000000000000000000000000000005f52604160045260245ffd5b7f4e487b71000000000000000000000000000000000000000000000000000000005f52602260045260245ffd5b5f600282049050600182168061020a57607f821691505b60208210810361021d5761021c6101c6565b5b50919050565b5f819050815f5260205f209050919050565b5f6020601f8301049050919050565b5f82821b905092915050565b5f6008830261027f7fffffffffffffffffffffffffffffffffffffffffffffffffffffffffffffffff82610244565b6102898683610244565b95508019841693508086168417925050509392505050565b5f819050919050565b5f6102c46102bf6102ba8461013f565b6102a1565b61013f565b9050919050565b5f819050919050565b6102dd836102aa565b6102f16102e9826102cb565b848454610250565b825550505050565b5f5f905090565b6103086102f9565b6103138184846102d4565b505050565b5b818110156103365761032b5f82610300565b600181019050610319565b5050565b601f82111561037b5761034c81610223565b61035584610235565b81016020851015610364578190505b61037861037085610235565b830182610318565b50505b505050565b5f82821c905092915050565b5f61039b5f1984600802610380565b1980831691505092915050565b5f6103b3838361038c565b9150826002028217905092915050565b6103cc8261018f565b67ffffffffffffffff8111156103e5576103e4610199565b5b6103ef82546101f3565b6103fa82828561033a565b5f60209050601f83116001811461042b575f8415610419578287015190505b61042385826103a8565b86555061048a565b601f19841661043986610223565b5f5b828110156104605784890151825560018201915060208501945060208101905061043b565b8683101561047d5784890151610479601f89168261038c565b8355505b6001600288020188555050505b505050505050565b6107e08061049f5f395ff3fe608060405234801561000f575f5ffd5b5060043610610055575f3560e01c80630121b93f1461005957806309eef43e146100755780632d35a8a2146100a55780633477ee2e146100c3578063b2c2f2e8146100f5575b5f5ffd5b610073600480360381019061006e9190610452565b610125565b005b61008f600480360381019061008a91906104d7565b6102ab565b60405161009c919061051c565b60405180910390f35b6100ad6102fc565b6040516100ba9190610544565b60405180910390f35b6100dd60048036038101906100d89190610452565b610302565b6040516100ec939291906105cd565b60405180910390f35b61010f600480360381019061010a9190610452565b6103ae565b60405161011c9190610544565b60405180910390f35b5f5f3373ffffffffffffffffffffffffffffffffffffffff1673ffffffffffffffffffffffffffffffffffffffff1681526020019081526020015f205f9054906101000a900460ff16156101ae576040517f08c379a00000000000000000000000000000000000000000000000000000000081526004016101a590610653565b60405180910390fd5b5f811180156101bf57506002548111155b6101fe576040517f08c379a00000000000000000000000000000000000000000000000000000000081526004016101f5906106bb565b60405180910390fd5b60015f5f3373ffffffffffffffffffffffffffffffffffffffff1673ffffffffffffffffffffffffffffffffffffffff1681526020019081526020015f205f6101000a81548160ff02191690831515021790555060015f8281526020019081526020015f206002015f81548092919061027690610706565b9190505550807ffff3c900d938d21d0990d786e819f29b8d05c1ef587b462b939609625b684b1660405160405180910390a250565b5f5f5f8373ffffffffffffffffffffffffffffffffffffffff1673ffffffffffffffffffffffffffffffffffffffff1681526020019081526020015f205f9054906101000a900460ff169050919050565b60025481565b6001602052805f5260405f205f91509050805f0154908060010180546103279061077a565b80601f01602080910402602001604051908101604052809291908181526020018280546103539061077a565b801561039e5780601f106103755761010080835404028352916020019161039e565b820191905f5260205f20905b81548152906001019060200180831161038157829003601f168201915b5050505050908060020154905083565b5f5f821180156103c057506002548211155b6103ff576040517f08c379a00000000000000000000000000000000000000000000000000000000081526004016103f6906106bb565b60405180910390fd5b60015f8381526020019081526020015f20600201549050919050565b5f5ffd5b5f819050919050565b6104318161041f565b811461043b575f5ffd5b50565b5f8135905061044c81610428565b92915050565b5f602082840312156104675761046661041b565b5b5f6104748482850161043e565b91505092915050565b5f73ffffffffffffffffffffffffffffffffffffffff82169050919050565b5f6104a68261047d565b9050919050565b6104b68161049c565b81146104c0575f5ffd5b50565b5f813590506104d1816104ad565b92915050565b5f602082840312156104ec576104eb61041b565b5b5f6104f9848285016104c3565b91505092915050565b5f8115159050919050565b61051681610502565b82525050565b5f60208201905061052f5f83018461050d565b92915050565b61053e8161041f565b82525050565b5f6020820190506105575f830184610535565b92915050565b5f81519050919050565b5f82825260208201905092915050565b8281835e5f83830152505050565b5f601f19601f8301169050919050565b5f61059f8261055d565b6105a98185610567565b93506105b9818560208601610577565b6105c281610585565b840191505092915050565b5f6060820190506105e05f830186610535565b81810360208301526105f28185610595565b90506106016040830184610535565b949350505050565b7f596f75206861766520616c726561647920766f7465642e0000000000000000005f82015250565b5f61063d601783610567565b915061064882610609565b602082019050919050565b5f6020820190508181035f83015261066a81610631565b9050919050565b7f496e76616c69642063616e6469646174652049442e00000000000000000000005f82015250565b5f6106a5601583610567565b91506106b082610671565b602082019050919050565b5f6020820190508181035f8301526106d281610699565b9050919050565b7f4e487b71000000000000000000000000000000000000000000000000000000005f52601160045260245ffd5b5f6107108261041f565b91507fffffffffffffffffffffffffffffffffffffffffffffffffffffffffffffffff8203610742576107416106d9565b5b600182019050919050565b7f4e487b71000000000000000000000000000000000000000000000000000000005f52602260045260245ffd5b5f600282049050600182168061079157607f821691505b6020821081036107a4576107a361074d565b5b5091905056fea264697066735822122053995e4d54df9ed833ac4b3aecd48c10b071a6d1808d3a3387c216e71fac9e9d64736f6c634300081e0033",
					"opcodes": "PUSH1 0x80 PUSH1 0x40 MSTORE CALLVALUE DUP1 ISZERO PUSH2 0xF JUMPI PUSH0 PUSH0 REVERT JUMPDEST POP PUSH2 0x54 PUSH1 0x40 MLOAD DUP1 PUSH1 0x40 ADD PUSH1 0x40 MSTORE DUP1 PUSH1 0x5 DUP2 MSTORE PUSH1 0x20 ADD PUSH32 0x416C696365000000000000000000000000000000000000000000000000000000 DUP2 MSTORE POP PUSH2 0x9D PUSH1 0x20 SHL PUSH1 0x20 SHR JUMP JUMPDEST PUSH2 0x98 PUSH1 0x40 MLOAD DUP1 PUSH1 0x40 ADD PUSH1 0x40 MSTORE DUP1 PUSH1 0x3 DUP2 MSTORE PUSH1 0x20 ADD PUSH32 0x426F620000000000000000000000000000000000000000000000000000000000 DUP2 MSTORE POP PUSH2 0x9D PUSH1 0x20 SHL PUSH1 0x20 SHR JUMP JUMPDEST PUSH2 0x492 JUMP JUMPDEST PUSH1 0x2 PUSH0 DUP2 SLOAD DUP1 SWAP3 SWAP2 SWAP1 PUSH2 0xAF SWAP1 PUSH2 0x148 JUMP JUMPDEST SWAP2 SWAP1 POP SSTORE POP PUSH1 0x40 MLOAD DUP1 PUSH1 0x60 ADD PUSH1 0x40 MSTORE DUP1 PUSH1 0x2 SLOAD DUP2 MSTORE PUSH1 0x20 ADD DUP3 DUP2 MSTORE PUSH1 0x20 ADD PUSH0 DUP2 MSTORE POP PUSH1 0x1 PUSH0 PUSH1 0x2 SLOAD DUP2 MSTORE PUSH1 0x20 ADD SWAP1 DUP2 MSTORE PUSH1 0x20 ADD PUSH0 KECCAK256 PUSH0 DUP3 ADD MLOAD DUP2 PUSH0 ADD SSTORE PUSH1 0x20 DUP3 ADD MLOAD DUP2 PUSH1 0x1 ADD SWAP1 DUP2 PUSH2 0x101 SWAP2 SWAP1 PUSH2 0x3C3 JUMP JUMPDEST POP PUSH1 0x40 DUP3 ADD MLOAD DUP2 PUSH1 0x2 ADD SSTORE SWAP1 POP POP POP JUMP JUMPDEST PUSH32 0x4E487B7100000000000000000000000000000000000000000000000000000000 PUSH0 MSTORE PUSH1 0x11 PUSH1 0x4 MSTORE PUSH1 0x24 PUSH0 REVERT JUMPDEST PUSH0 DUP2 SWAP1 POP SWAP2 SWAP1 POP JUMP JUMPDEST PUSH0 PUSH2 0x152 DUP3 PUSH2 0x13F JUMP JUMPDEST SWAP2 POP PUSH32 0xFFFFFFFFFFFFFFFFFFFFFFFFFFFFFFFFFFFFFFFFFFFFFFFFFFFFFFFFFFFFFFFF DUP3 SUB PUSH2 0x184 JUMPI PUSH2 0x183 PUSH2 0x112 JUMP JUMPDEST JUMPDEST PUSH1 0x1 DUP3 ADD SWAP1 POP SWAP2 SWAP1 POP JUMP JUMPDEST PUSH0 DUP2 MLOAD SWAP1 POP SWAP2 SWAP1 POP JUMP JUMPDEST PUSH32 0x4E487B7100000000000000000000000000000000000000000000000000000000 PUSH0 MSTORE PUSH1 0x41 PUSH1 0x4 MSTORE PUSH1 0x24 PUSH0 REVERT JUMPDEST PUSH32 0x4E487B7100000000000000000000000000000000000000000000000000000000 PUSH0 MSTORE PUSH1 0x22 PUSH1 0x4 MSTORE PUSH1 0x24 PUSH0 REVERT JUMPDEST PUSH0 PUSH1 0x2 DUP3 DIV SWAP1 POP PUSH1 0x1 DUP3 AND DUP1 PUSH2 0x20A JUMPI PUSH1 0x7F DUP3 AND SWAP2 POP JUMPDEST PUSH1 0x20 DUP3 LT DUP2 SUB PUSH2 0x21D JUMPI PUSH2 0x21C PUSH2 0x1C6 JUMP JUMPDEST JUMPDEST POP SWAP2 SWAP1 POP JUMP JUMPDEST PUSH0 DUP2 SWAP1 POP DUP2 PUSH0 MSTORE PUSH1 0x20 PUSH0 KECCAK256 SWAP1 POP SWAP2 SWAP1 POP JUMP JUMPDEST PUSH0 PUSH1 0x20 PUSH1 0x1F DUP4 ADD DIV SWAP1 POP SWAP2 SWAP1 POP JUMP JUMPDEST PUSH0 DUP3 DUP3 SHL SWAP1 POP SWAP3 SWAP2 POP POP JUMP JUMPDEST PUSH0 PUSH1 0x8 DUP4 MUL PUSH2 0x27F PUSH32 0xFFFFFFFFFFFFFFFFFFFFFFFFFFFFFFFFFFFFFFFFFFFFFFFFFFFFFFFFFFFFFFFF DUP3 PUSH2 0x244 JUMP JUMPDEST PUSH2 0x289 DUP7 DUP4 PUSH2 0x244 JUMP JUMPDEST SWAP6 POP DUP1 NOT DUP5 AND SWAP4 POP DUP1 DUP7 AND DUP5 OR SWAP3 POP POP POP SWAP4 SWAP3 POP POP POP JUMP JUMPDEST PUSH0 DUP2 SWAP1 POP SWAP2 SWAP1 POP JUMP JUMPDEST PUSH0 PUSH2 0x2C4 PUSH2 0x2BF PUSH2 0x2BA DUP5 PUSH2 0x13F JUMP JUMPDEST PUSH2 0x2A1 JUMP JUMPDEST PUSH2 0x13F JUMP JUMPDEST SWAP1 POP SWAP2 SWAP1 POP JUMP JUMPDEST PUSH0 DUP2 SWAP1 POP SWAP2 SWAP1 POP JUMP JUMPDEST PUSH2 0x2DD DUP4 PUSH2 0x2AA JUMP JUMPDEST PUSH2 0x2F1 PUSH2 0x2E9 DUP3 PUSH2 0x2CB JUMP JUMPDEST DUP5 DUP5 SLOAD PUSH2 0x250 JUMP JUMPDEST DUP3 SSTORE POP POP POP POP JUMP JUMPDEST PUSH0 PUSH0 SWAP1 POP SWAP1 JUMP JUMPDEST PUSH2 0x308 PUSH2 0x2F9 JUMP JUMPDEST PUSH2 0x313 DUP2 DUP5 DUP5 PUSH2 0x2D4 JUMP JUMPDEST POP POP POP JUMP JUMPDEST JUMPDEST DUP2 DUP2 LT ISZERO PUSH2 0x336 JUMPI PUSH2 0x32B PUSH0 DUP3 PUSH2 0x300 JUMP JUMPDEST PUSH1 0x1 DUP2 ADD SWAP1 POP PUSH2 0x319 JUMP JUMPDEST POP POP JUMP JUMPDEST PUSH1 0x1F DUP3 GT ISZERO PUSH2 0x37B JUMPI PUSH2 0x34C DUP2 PUSH2 0x223 JUMP JUMPDEST PUSH2 0x355 DUP5 PUSH2 0x235 JUMP JUMPDEST DUP2 ADD PUSH1 0x20 DUP6 LT ISZERO PUSH2 0x364 JUMPI DUP2 SWAP1 POP JUMPDEST PUSH2 0x378 PUSH2 0x370 DUP6 PUSH2 0x235 JUMP JUMPDEST DUP4 ADD DUP3 PUSH2 0x318 JUMP JUMPDEST POP POP JUMPDEST POP POP POP JUMP JUMPDEST PUSH0 DUP3 DUP3 SHR SWAP1 POP SWAP3 SWAP2 POP POP JUMP JUMPDEST PUSH0 PUSH2 0x39B PUSH0 NOT DUP5 PUSH1 0x8 MUL PUSH2 0x380 JUMP JUMPDEST NOT DUP1 DUP4 AND SWAP2 POP POP SWAP3 SWAP2 POP POP JUMP JUMPDEST PUSH0 PUSH2 0x3B3 DUP4 DUP4 PUSH2 0x38C JUMP JUMPDEST SWAP2 POP DUP3 PUSH1 0x2 MUL DUP3 OR SWAP1 POP SWAP3 SWAP2 POP POP JUMP JUMPDEST PUSH2 0x3CC DUP3 PUSH2 0x18F JUMP JUMPDEST PUSH8 0xFFFFFFFFFFFFFFFF DUP2 GT ISZERO PUSH2 0x3E5 JUMPI PUSH2 0x3E4 PUSH2 0x199 JUMP JUMPDEST JUMPDEST PUSH2 0x3EF DUP3 SLOAD PUSH2 0x1F3 JUMP JUMPDEST PUSH2 0x3FA DUP3 DUP3 DUP6 PUSH2 0x33A JUMP JUMPDEST PUSH0 PUSH1 0x20 SWAP1 POP PUSH1 0x1F DUP4 GT PUSH1 0x1 DUP2 EQ PUSH2 0x42B JUMPI PUSH0 DUP5 ISZERO PUSH2 0x419 JUMPI DUP3 DUP8 ADD MLOAD SWAP1 POP JUMPDEST PUSH2 0x423 DUP6 DUP3 PUSH2 0x3A8 JUMP JUMPDEST DUP7 SSTORE POP PUSH2 0x48A JUMP JUMPDEST PUSH1 0x1F NOT DUP5 AND PUSH2 0x439 DUP7 PUSH2 0x223 JUMP JUMPDEST PUSH0 JUMPDEST DUP3 DUP2 LT ISZERO PUSH2 0x460 JUMPI DUP5 DUP10 ADD MLOAD DUP3 SSTORE PUSH1 0x1 DUP3 ADD SWAP2 POP PUSH1 0x20 DUP6 ADD SWAP5 POP PUSH1 0x20 DUP2 ADD SWAP1 POP PUSH2 0x43B JUMP JUMPDEST DUP7 DUP4 LT ISZERO PUSH2 0x47D JUMPI DUP5 DUP10 ADD MLOAD PUSH2 0x479 PUSH1 0x1F DUP10 AND DUP3 PUSH2 0x38C JUMP JUMPDEST DUP4 SSTORE POP JUMPDEST PUSH1 0x1 PUSH1 0x2 DUP9 MUL ADD DUP9 SSTORE POP POP POP JUMPDEST POP POP POP POP POP POP JUMP JUMPDEST PUSH2 0x7E0 DUP1 PUSH2 0x49F PUSH0 CODECOPY PUSH0 RETURN INVALID PUSH1 0x80 PUSH1 0x40 MSTORE CALLVALUE DUP1 ISZERO PUSH2 0xF JUMPI PUSH0 PUSH0 REVERT JUMPDEST POP PUSH1 0x4 CALLDATASIZE LT PUSH2 0x55 JUMPI PUSH0 CALLDATALOAD PUSH1 0xE0 SHR DUP1 PUSH4 0x121B93F EQ PUSH2 0x59 JUMPI DUP1 PUSH4 0x9EEF43E EQ PUSH2 0x75 JUMPI DUP1 PUSH4 0x2D35A8A2 EQ PUSH2 0xA5 JUMPI DUP1 PUSH4 0x3477EE2E EQ PUSH2 0xC3 JUMPI DUP1 PUSH4 0xB2C2F2E8 EQ PUSH2 0xF5 JUMPI JUMPDEST PUSH0 PUSH0 REVERT JUMPDEST PUSH2 0x73 PUSH1 0x4 DUP1 CALLDATASIZE SUB DUP2 ADD SWAP1 PUSH2 0x6E SWAP2 SWAP1 PUSH2 0x452 JUMP JUMPDEST PUSH2 0x125 JUMP JUMPDEST STOP JUMPDEST PUSH2 0x8F PUSH1 0x4 DUP1 CALLDATASIZE SUB DUP2 ADD SWAP1 PUSH2 0x8A SWAP2 SWAP1 PUSH2 0x4D7 JUMP JUMPDEST PUSH2 0x2AB JUMP JUMPDEST PUSH1 0x40 MLOAD PUSH2 0x9C SWAP2 SWAP1 PUSH2 0x51C JUMP JUMPDEST PUSH1 0x40 MLOAD DUP1 SWAP2 SUB SWAP1 RETURN JUMPDEST PUSH2 0xAD PUSH2 0x2FC JUMP JUMPDEST PUSH1 0x40 MLOAD PUSH2 0xBA SWAP2 SWAP1 PUSH2 0x544 JUMP JUMPDEST PUSH1 0x40 MLOAD DUP1 SWAP2 SUB SWAP1 RETURN JUMPDEST PUSH2 0xDD PUSH1 0x4 DUP1 CALLDATASIZE SUB DUP2 ADD SWAP1 PUSH2 0xD8 SWAP2 SWAP1 PUSH2 0x452 JUMP JUMPDEST PUSH2 0x302 JUMP JUMPDEST PUSH1 0x40 MLOAD PUSH2 0xEC SWAP4 SWAP3 SWAP2 SWAP1 PUSH2 0x5CD JUMP JUMPDEST PUSH1 0x40 MLOAD DUP1 SWAP2 SUB SWAP1 RETURN JUMPDEST PUSH2 0x10F PUSH1 0x4 DUP1 CALLDATASIZE SUB DUP2 ADD SWAP1 PUSH2 0x10A SWAP2 SWAP1 PUSH2 0x452 JUMP JUMPDEST PUSH2 0x3AE JUMP JUMPDEST PUSH1 0x40 MLOAD PUSH2 0x11C SWAP2 SWAP1 PUSH2 0x544 JUMP JUMPDEST PUSH1 0x40 MLOAD DUP1 SWAP2 SUB SWAP1 RETURN JUMPDEST PUSH0 PUSH0 CALLER PUSH20 0xFFFFFFFFFFFFFFFFFFFFFFFFFFFFFFFFFFFFFFFF AND PUSH20 0xFFFFFFFFFFFFFFFFFFFFFFFFFFFFFFFFFFFFFFFF AND DUP2 MSTORE PUSH1 0x20 ADD SWAP1 DUP2 MSTORE PUSH1 0x20 ADD PUSH0 KECCAK256 PUSH0 SWAP1 SLOAD SWAP1 PUSH2 0x100 EXP SWAP1 DIV PUSH1 0xFF AND ISZERO PUSH2 0x1AE JUMPI PUSH1 0x40 MLOAD PUSH32 0x8C379A000000000000000000000000000000000000000000000000000000000 DUP2 MSTORE PUSH1 0x4 ADD PUSH2 0x1A5 SWAP1 PUSH2 0x653 JUMP JUMPDEST PUSH1 0x40 MLOAD DUP1 SWAP2 SUB SWAP1 REVERT JUMPDEST PUSH0 DUP2 GT DUP1 ISZERO PUSH2 0x1BF JUMPI POP PUSH1 0x2 SLOAD DUP2 GT ISZERO JUMPDEST PUSH2 0x1FE JUMPI PUSH1 0x40 MLOAD PUSH32 0x8C379A000000000000000000000000000000000000000000000000000000000 DUP2 MSTORE PUSH1 0x4 ADD PUSH2 0x1F5 SWAP1 PUSH2 0x6BB JUMP JUMPDEST PUSH1 0x40 MLOAD DUP1 SWAP2 SUB SWAP1 REVERT JUMPDEST PUSH1 0x1 PUSH0 PUSH0 CALLER PUSH20 0xFFFFFFFFFFFFFFFFFFFFFFFFFFFFFFFFFFFFFFFF AND PUSH20 0xFFFFFFFFFFFFFFFFFFFFFFFFFFFFFFFFFFFFFFFF AND DUP2 MSTORE PUSH1 0x20 ADD SWAP1 DUP2 MSTORE PUSH1 0x20 ADD PUSH0 KECCAK256 PUSH0 PUSH2 0x100 EXP DUP2 SLOAD DUP2 PUSH1 0xFF MUL NOT AND SWAP1 DUP4 ISZERO ISZERO MUL OR SWAP1 SSTORE POP PUSH1 0x1 PUSH0 DUP3 DUP2 MSTORE PUSH1 0x20 ADD SWAP1 DUP2 MSTORE PUSH1 0x20 ADD PUSH0 KECCAK256 PUSH1 0x2 ADD PUSH0 DUP2 SLOAD DUP1 SWAP3 SWAP2 SWAP1 PUSH2 0x276 SWAP1 PUSH2 0x706 JUMP JUMPDEST SWAP2 SWAP1 POP SSTORE POP DUP1 PUSH32 0xFFF3C900D938D21D0990D786E819F29B8D05C1EF587B462B939609625B684B16 PUSH1 0x40 MLOAD PUSH1 0x40 MLOAD DUP1 SWAP2 SUB SWAP1 LOG2 POP JUMP JUMPDEST PUSH0 PUSH0 PUSH0 DUP4 PUSH20 0xFFFFFFFFFFFFFFFFFFFFFFFFFFFFFFFFFFFFFFFF AND PUSH20 0xFFFFFFFFFFFFFFFFFFFFFFFFFFFFFFFFFFFFFFFF AND DUP2 MSTORE PUSH1 0x20 ADD SWAP1 DUP2 MSTORE PUSH1 0x20 ADD PUSH0 KECCAK256 PUSH0 SWAP1 SLOAD SWAP1 PUSH2 0x100 EXP SWAP1 DIV PUSH1 0xFF AND SWAP1 POP SWAP2 SWAP1 POP JUMP JUMPDEST PUSH1 0x2 SLOAD DUP2 JUMP JUMPDEST PUSH1 0x1 PUSH1 0x20 MSTORE DUP1 PUSH0 MSTORE PUSH1 0x40 PUSH0 KECCAK256 PUSH0 SWAP2 POP SWAP1 POP DUP1 PUSH0 ADD SLOAD SWAP1 DUP1 PUSH1 0x1 ADD DUP1 SLOAD PUSH2 0x327 SWAP1 PUSH2 0x77A JUMP JUMPDEST DUP1 PUSH1 0x1F ADD PUSH1 0x20 DUP1 SWAP2 DIV MUL PUSH1 0x20 ADD PUSH1 0x40 MLOAD SWAP1 DUP2 ADD PUSH1 0x40 MSTORE DUP1 SWAP3 SWAP2 SWAP1 DUP2 DUP2 MSTORE PUSH1 0x20 ADD DUP3 DUP1 SLOAD PUSH2 0x353 SWAP1 PUSH2 0x77A JUMP JUMPDEST DUP1 ISZERO PUSH2 0x39E JUMPI DUP1 PUSH1 0x1F LT PUSH2 0x375 JUMPI PUSH2 0x100 DUP1 DUP4 SLOAD DIV MUL DUP4 MSTORE SWAP2 PUSH1 0x20 ADD SWAP2 PUSH2 0x39E JUMP JUMPDEST DUP3 ADD SWAP2 SWAP1 PUSH0 MSTORE PUSH1 0x20 PUSH0 KECCAK256 SWAP1 JUMPDEST DUP2 SLOAD DUP2 MSTORE SWAP1 PUSH1 0x1 ADD SWAP1 PUSH1 0x20 ADD DUP1 DUP4 GT PUSH2 0x381 JUMPI DUP3 SWAP1 SUB PUSH1 0x1F AND DUP3 ADD SWAP2 JUMPDEST POP POP POP POP POP SWAP1 DUP1 PUSH1 0x2 ADD SLOAD SWAP1 POP DUP4 JUMP JUMPDEST PUSH0 PUSH0 DUP3 GT DUP1 ISZERO PUSH2 0x3C0 JUMPI POP PUSH1 0x2 SLOAD DUP3 GT ISZERO JUMPDEST PUSH2 0x3FF JUMPI PUSH1 0x40 MLOAD PUSH32 0x8C379A000000000000000000000000000000000000000000000000000000000 DUP2 MSTORE PUSH1 0x4 ADD PUSH2 0x3F6 SWAP1 PUSH2 0x6BB JUMP JUMPDEST PUSH1 0x40 MLOAD DUP1 SWAP2 SUB SWAP1 REVERT JUMPDEST PUSH1 0x1 PUSH0 DUP4 DUP2 MSTORE PUSH1 0x20 ADD SWAP1 DUP2 MSTORE PUSH1 0x20 ADD PUSH0 KECCAK256 PUSH1 0x2 ADD SLOAD SWAP1 POP SWAP2 SWAP1 POP JUMP JUMPDEST PUSH0 PUSH0 REVERT JUMPDEST PUSH0 DUP2 SWAP1 POP SWAP2 SWAP1 POP JUMP JUMPDEST PUSH2 0x431 DUP2 PUSH2 0x41F JUMP JUMPDEST DUP2 EQ PUSH2 0x43B JUMPI PUSH0 PUSH0 REVERT JUMPDEST POP JUMP JUMPDEST PUSH0 DUP2 CALLDATALOAD SWAP1 POP PUSH2 0x44C DUP2 PUSH2 0x428 JUMP JUMPDEST SWAP3 SWAP2 POP POP JUMP JUMPDEST PUSH0 PUSH1 0x20 DUP3 DUP5 SUB SLT ISZERO PUSH2 0x467 JUMPI PUSH2 0x466 PUSH2 0x41B JUMP JUMPDEST JUMPDEST PUSH0 PUSH2 0x474 DUP5 DUP3 DUP6 ADD PUSH2 0x43E JUMP JUMPDEST SWAP2 POP POP SWAP3 SWAP2 POP POP JUMP JUMPDEST PUSH0 PUSH20 0xFFFFFFFFFFFFFFFFFFFFFFFFFFFFFFFFFFFFFFFF DUP3 AND SWAP1 POP SWAP2 SWAP1 POP JUMP JUMPDEST PUSH0 PUSH2 0x4A6 DUP3 PUSH2 0x47D JUMP JUMPDEST SWAP1 POP SWAP2 SWAP1 POP JUMP JUMPDEST PUSH2 0x4B6 DUP2 PUSH2 0x49C JUMP JUMPDEST DUP2 EQ PUSH2 0x4C0 JUMPI PUSH0 PUSH0 REVERT JUMPDEST POP JUMP JUMPDEST PUSH0 DUP2 CALLDATALOAD SWAP1 POP PUSH2 0x4D1 DUP2 PUSH2 0x4AD JUMP JUMPDEST SWAP3 SWAP2 POP POP JUMP JUMPDEST PUSH0 PUSH1 0x20 DUP3 DUP5 SUB SLT ISZERO PUSH2 0x4EC JUMPI PUSH2 0x4EB PUSH2 0x41B JUMP JUMPDEST JUMPDEST PUSH0 PUSH2 0x4F9 DUP5 DUP3 DUP6 ADD PUSH2 0x4C3 JUMP JUMPDEST SWAP2 POP POP SWAP3 SWAP2 POP POP JUMP JUMPDEST PUSH0 DUP2 ISZERO ISZERO SWAP1 POP SWAP2 SWAP1 POP JUMP JUMPDEST PUSH2 0x516 DUP2 PUSH2 0x502 JUMP JUMPDEST DUP3 MSTORE POP POP JUMP JUMPDEST PUSH0 PUSH1 0x20 DUP3 ADD SWAP1 POP PUSH2 0x52F PUSH0 DUP4 ADD DUP5 PUSH2 0x50D JUMP JUMPDEST SWAP3 SWAP2 POP POP JUMP JUMPDEST PUSH2 0x53E DUP2 PUSH2 0x41F JUMP JUMPDEST DUP3 MSTORE POP POP JUMP JUMPDEST PUSH0 PUSH1 0x20 DUP3 ADD SWAP1 POP PUSH2 0x557 PUSH0 DUP4 ADD DUP5 PUSH2 0x535 JUMP JUMPDEST SWAP3 SWAP2 POP POP JUMP JUMPDEST PUSH0 DUP2 MLOAD SWAP1 POP SWAP2 SWAP1 POP JUMP JUMPDEST PUSH0 DUP3 DUP3 MSTORE PUSH1 0x20 DUP3 ADD SWAP1 POP SWAP3 SWAP2 POP POP JUMP JUMPDEST DUP3 DUP2 DUP4 MCOPY PUSH0 DUP4 DUP4 ADD MSTORE POP POP POP JUMP JUMPDEST PUSH0 PUSH1 0x1F NOT PUSH1 0x1F DUP4 ADD AND SWAP1 POP SWAP2 SWAP1 POP JUMP JUMPDEST PUSH0 PUSH2 0x59F DUP3 PUSH2 0x55D JUMP JUMPDEST PUSH2 0x5A9 DUP2 DUP6 PUSH2 0x567 JUMP JUMPDEST SWAP4 POP PUSH2 0x5B9 DUP2 DUP6 PUSH1 0x20 DUP7 ADD PUSH2 0x577 JUMP JUMPDEST PUSH2 0x5C2 DUP2 PUSH2 0x585 JUMP JUMPDEST DUP5 ADD SWAP2 POP POP SWAP3 SWAP2 POP POP JUMP JUMPDEST PUSH0 PUSH1 0x60 DUP3 ADD SWAP1 POP PUSH2 0x5E0 PUSH0 DUP4 ADD DUP7 PUSH2 0x535 JUMP JUMPDEST DUP2 DUP2 SUB PUSH1 0x20 DUP4 ADD MSTORE PUSH2 0x5F2 DUP2 DUP6 PUSH2 0x595 JUMP JUMPDEST SWAP1 POP PUSH2 0x601 PUSH1 0x40 DUP4 ADD DUP5 PUSH2 0x535 JUMP JUMPDEST SWAP5 SWAP4 POP POP POP POP JUMP JUMPDEST PUSH32 0x596F75206861766520616C726561647920766F7465642E000000000000000000 PUSH0 DUP3 ADD MSTORE POP JUMP JUMPDEST PUSH0 PUSH2 0x63D PUSH1 0x17 DUP4 PUSH2 0x567 JUMP JUMPDEST SWAP2 POP PUSH2 0x648 DUP3 PUSH2 0x609 JUMP JUMPDEST PUSH1 0x20 DUP3 ADD SWAP1 POP SWAP2 SWAP1 POP JUMP JUMPDEST PUSH0 PUSH1 0x20 DUP3 ADD SWAP1 POP DUP2 DUP2 SUB PUSH0 DUP4 ADD MSTORE PUSH2 0x66A DUP2 PUSH2 0x631 JUMP JUMPDEST SWAP1 POP SWAP2 SWAP1 POP JUMP JUMPDEST PUSH32 0x496E76616C69642063616E6469646174652049442E0000000000000000000000 PUSH0 DUP3 ADD MSTORE POP JUMP JUMPDEST PUSH0 PUSH2 0x6A5 PUSH1 0x15 DUP4 PUSH2 0x567 JUMP JUMPDEST SWAP2 POP PUSH2 0x6B0 DUP3 PUSH2 0x671 JUMP JUMPDEST PUSH1 0x20 DUP3 ADD SWAP1 POP SWAP2 SWAP1 POP JUMP JUMPDEST PUSH0 PUSH1 0x20 DUP3 ADD SWAP1 POP DUP2 DUP2 SUB PUSH0 DUP4 ADD MSTORE PUSH2 0x6D2 DUP2 PUSH2 0x699 JUMP JUMPDEST SWAP1 POP SWAP2 SWAP1 POP JUMP JUMPDEST PUSH32 0x4E487B7100000000000000000000000000000000000000000000000000000000 PUSH0 MSTORE PUSH1 0x11 PUSH1 0x4 MSTORE PUSH1 0x24 PUSH0 REVERT JUMPDEST PUSH0 PUSH2 0x710 DUP3 PUSH2 0x41F JUMP JUMPDEST SWAP2 POP PUSH32 0xFFFFFFFFFFFFFFFFFFFFFFFFFFFFFFFFFFFFFFFFFFFFFFFFFFFFFFFFFFFFFFFF DUP3 SUB PUSH2 0x742 JUMPI PUSH2 0x741 PUSH2 0x6D9 JUMP JUMPDEST JUMPDEST PUSH1 0x1 DUP3 ADD SWAP1 POP SWAP2 SWAP1 POP JUMP JUMPDEST PUSH32 0x4E487B7100000000000000000000000000000000000000000000000000000000 PUSH0 MSTORE PUSH1 0x22 PUSH1 0x4 MSTORE PUSH1 0x24 PUSH0 REVERT JUMPDEST PUSH0 PUSH1 0x2 DUP3 DIV SWAP1 POP PUSH1 0x1 DUP3 AND DUP1 PUSH2 0x791 JUMPI PUSH1 0x7F DUP3 AND SWAP2 POP JUMPDEST PUSH1 0x20 DUP3 LT DUP2 SUB PUSH2 0x7A4 JUMPI PUSH2 0x7A3 PUSH2 0x74D JUMP JUMPDEST JUMPDEST POP SWAP2 SWAP1 POP JUMP INVALID LOG2 PUSH5 0x6970667358 0x22 SLT KECCAK256 MSTORE8 SWAP10 MCOPY 0x4D SLOAD 0xDF SWAP15 0xD8 CALLER 0xAC 0x4B GASPRICE EOFCREATE 0xD4 DUP13 LT 0xB0 PUSH18 0xA6D1808D3A3387C216E71FAC9E9D64736F6C PUSH4 0x4300081E STOP CALLER "
				},
				"gasEstimates": {
					"creation": {
						"codeDepositCost": "403200",
						"executionCost": "infinite",
						"totalCost": "infinite"
					},
					"external": {
						"candidates(uint256)": "infinite",
						"candidatesCount()": "2447",
						"getVoteCount(uint256)": "infinite",
						"hasVoted(address)": "2869",
						"vote(uint256)": "infinite"
					},
					"internal": {
						"addCandidate(string memory)": "infinite"
					}
				},
				"methodIdentifiers": {
					"candidates(uint256)": "3477ee2e",
					"candidatesCount()": "2d35a8a2",
					"getVoteCount(uint256)": "b2c2f2e8",
					"hasVoted(address)": "09eef43e",
					"vote(uint256)": "0121b93f"
				}
			},
			"storageLayout": {
				"storage": [
					{
						"astId": 12,
						"contract": "contracts/web3-voting.sol:Voting",
						"label": "voters",
						"offset": 0,
						"slot": "0",
						"type": "t_mapping(t_address,t_bool)"
					},
					{
						"astId": 17,
						"contract": "contracts/web3-voting.sol:Voting",
						"label": "candidates",
						"offset": 0,
						"slot": "1",
						"type": "t_mapping(t_uint256,t_struct(Candidate)8_storage)"
					},
					{
						"astId": 19,
						"contract": "contracts/web3-voting.sol:Voting",
						"label": "candidatesCount",
						"offset": 0,
						"slot": "2",
						"type": "t_uint256"
					}
				],
				"types": {
					"t_address": {
						"encoding": "inplace",
						"label": "address",
						"numberOfBytes": "20"
					},
					"t_bool": {
						"encoding": "inplace",
						"label": "bool",
						"numberOfBytes": "1"
					},
					"t_mapping(t_address,t_bool)": {
						"encoding": "mapping",
						"key": "t_address",
						"label": "mapping(address => bool)",
						"numberOfBytes": "32",
						"value": "t_bool"
					},
					"t_mapping(t_uint256,t_struct(Candidate)8_storage)": {
						"encoding": "mapping",
						"key": "t_uint256",
						"label": "mapping(uint256 => struct Voting.Candidate)",
						"numberOfBytes": "32",
						"value": "t_struct(Candidate)8_storage"
					},
					"t_string_storage": {
						"encoding": "bytes",
						"label": "string",
						"numberOfBytes": "32"
					},
					"t_struct(Candidate)8_storage": {
						"encoding": "inplace",
						"label": "struct Voting.Candidate",
						"members": [
							{
								"astId": 3,
								"contract": "contracts/web3-voting.sol:Voting",
								"label": "id",
								"offset": 0,
								"slot": "0",
								"type": "t_uint256"
							},
							{
								"astId": 5,
								"contract": "contracts/web3-voting.sol:Voting",
								"label": "name",
								"offset": 0,
								"slot": "1",
								"type": "t_string_storage"
							},
							{
								"astId": 7,
								"contract": "contracts/web3-voting.sol:Voting",
								"label": "voteCount",
								"offset": 0,
								"slot": "2",
								"type": "t_uint256"
							}
						],
						"numberOfBytes": "96"
					},
					"t_uint256": {
						"encoding": "inplace",
						"label": "uint256",
						"numberOfBytes": "32"
					}
				}
			},
			"userdoc": {
				"kind": "user",
				"methods": {},
				"version": 1
			}
		}
	}
}